{
  "_format": "hh-sol-artifact-1",
  "contractName": "Voting",
  "sourceName": "contracts/voting.sol",
  "abi": [
    {
      "inputs": [],
      "stateMutability": "nonpayable",
      "type": "constructor"
    },
    {
      "anonymous": false,
      "inputs": [
        {
          "indexed": true,
          "internalType": "uint256",
          "name": "id",
          "type": "uint256"
        },
        {
          "indexed": false,
          "internalType": "string",
          "name": "name",
          "type": "string"
        }
      ],
      "name": "CandidateAdded",
      "type": "event"
    },
    {
      "anonymous": false,
      "inputs": [
        {
          "indexed": false,
          "internalType": "enum Voting.ElectionState",
          "name": "newState",
          "type": "uint8"
        }
      ],
      "name": "ElectionStatusChanged",
      "type": "event"
    },
    {
      "anonymous": false,
      "inputs": [
        {
          "indexed": true,
          "internalType": "address",
          "name": "voter",
          "type": "address"
        },
        {
          "indexed": true,
          "internalType": "uint256",
          "name": "candidateId",
          "type": "uint256"
        }
      ],
      "name": "Voted",
      "type": "event"
    },
    {
      "anonymous": false,
      "inputs": [
        {
          "indexed": true,
          "internalType": "address",
          "name": "voter",
          "type": "address"
        }
      ],
      "name": "VoterRegistered",
      "type": "event"
    },
    {
      "inputs": [
        {
          "internalType": "string",
          "name": "_name",
          "type": "string"
        }
      ],
      "name": "addCandidate",
      "outputs": [],
      "stateMutability": "nonpayable",
      "type": "function"
    },
    {
      "inputs": [
        {
          "internalType": "uint256",
          "name": "",
          "type": "uint256"
        }
      ],
      "name": "candidates",
      "outputs": [
        {
          "internalType": "uint256",
          "name": "id",
          "type": "uint256"
        },
        {
          "internalType": "string",
          "name": "name",
          "type": "string"
        },
        {
          "internalType": "uint256",
          "name": "voteCount",
          "type": "uint256"
        }
      ],
      "stateMutability": "view",
      "type": "function"
    },
    {
      "inputs": [],
      "name": "candidatesCount",
      "outputs": [
        {
          "internalType": "uint256",
          "name": "",
          "type": "uint256"
        }
      ],
      "stateMutability": "view",
      "type": "function"
    },
    {
      "inputs": [],
      "name": "electionState",
      "outputs": [
        {
          "internalType": "enum Voting.ElectionState",
          "name": "",
          "type": "uint8"
        }
      ],
      "stateMutability": "view",
      "type": "function"
    },
    {
      "inputs": [],
      "name": "endElection",
      "outputs": [],
      "stateMutability": "nonpayable",
      "type": "function"
    },
    {
      "inputs": [],
      "name": "owner",
      "outputs": [
        {
          "internalType": "address",
          "name": "",
          "type": "address"
        }
      ],
      "stateMutability": "view",
      "type": "function"
    },
    {
      "inputs": [
        {
          "internalType": "address",
          "name": "_voterAddress",
          "type": "address"
        }
      ],
      "name": "registerVoter",
      "outputs": [],
      "stateMutability": "nonpayable",
      "type": "function"
    },
    {
      "inputs": [],
      "name": "startElection",
      "outputs": [],
      "stateMutability": "nonpayable",
      "type": "function"
    },
    {
      "inputs": [
        {
          "internalType": "uint256",
          "name": "_candidateId",
          "type": "uint256"
        }
      ],
      "name": "vote",
      "outputs": [],
      "stateMutability": "nonpayable",
      "type": "function"
    },
    {
      "inputs": [
        {
          "internalType": "address",
          "name": "",
          "type": "address"
        }
      ],
      "name": "voters",
      "outputs": [
        {
          "internalType": "bool",
          "name": "isRegistered",
          "type": "bool"
        },
        {
          "internalType": "bool",
          "name": "hasVoted",
          "type": "bool"
        }
      ],
      "stateMutability": "view",
      "type": "function"
    }
  ],
  "bytecode": "0x608060405234801561001057600080fd5b50336000806101000a81548173ffffffffffffffffffffffffffffffffffffffff021916908373ffffffffffffffffffffffffffffffffffffffff1602179055506000600460006101000a81548160ff0219169083600281111561007757610076610081565b5b02179055506100b0565b7f4e487b7100000000000000000000000000000000000000000000000000000000600052602160045260246000fd5b611766806100bf6000396000f3fe608060405234801561001057600080fd5b506004361061009e5760003560e01c8063462e91ec11610066578063462e91ec1461014957806359f784681461016557806362d73eb81461016f5780638da5cb5b14610179578063a3ec138d146101975761009e565b80630121b93f146100a35780632280043d146100bf5780632d35a8a2146100dd5780633477ee2e146100fb57806338db6dd31461012d575b600080fd5b6100bd60048036038101906100b89190610c45565b6101c8565b005b6100c761047e565b6040516100d49190610ce9565b60405180910390f35b6100e5610491565b6040516100f29190610d13565b60405180910390f35b61011560048036038101906101109190610c45565b610497565b60405161012493929190610dbe565b60405180910390f35b61014760048036038101906101429190610e5a565b610549565b005b610163600480360381019061015e9190610fbc565b610708565b005b61016d6108c3565b005b610177610a2e565b005b610181610b99565b60405161018e9190611014565b60405180910390f35b6101b160048036038101906101ac9190610e5a565b610bbd565b6040516101bf92919061104a565b60405180910390f35b60018060028111156101dd576101dc610c72565b5b600460009054906101000a900460ff1660028111156101ff576101fe610c72565b5b1461023f576040517f08c379a0000000000000000000000000000000000000000000000000000000008152600401610236906110e5565b60405180910390fd5b600260003373ffffffffffffffffffffffffffffffffffffffff1673ffffffffffffffffffffffffffffffffffffffff16815260200190815260200160002060000160009054906101000a900460ff166102ce576040517f08c379a00000000000000000000000000000000000000000000000000000000081526004016102c590611177565b60405180910390fd5b600260003373ffffffffffffffffffffffffffffffffffffffff1673ffffffffffffffffffffffffffffffffffffffff16815260200190815260200160002060000160019054906101000a900460ff161561035e576040517f08c379a000000000000000000000000000000000000000000000000000000000815260040161035590611209565b60405180910390fd5b60008211801561037057506003548211155b6103af576040517f08c379a00000000000000000000000000000000000000000000000000000000081526004016103a690611275565b60405180910390fd5b6001600260003373ffffffffffffffffffffffffffffffffffffffff1673ffffffffffffffffffffffffffffffffffffffff16815260200190815260200160002060000160016101000a81548160ff021916908315150217905550600160008381526020019081526020016000206002016000815480929190610431906112c4565b9190505550813373ffffffffffffffffffffffffffffffffffffffff167f4d99b957a2bc29a30ebd96a7be8e68fe50a3c701db28a91436490b7d53870ca460405160405180910390a35050565b600460009054906101000a900460ff1681565b60035481565b60016020528060005260406000206000915090508060000154908060010180546104c09061133b565b80601f01602080910402602001604051908101604052809291908181526020018280546104ec9061133b565b80156105395780601f1061050e57610100808354040283529160200191610539565b820191906000526020600020905b81548152906001019060200180831161051c57829003601f168201915b5050505050908060020154905083565b60008054906101000a900473ffffffffffffffffffffffffffffffffffffffff1673ffffffffffffffffffffffffffffffffffffffff163373ffffffffffffffffffffffffffffffffffffffff16146105d7576040517f08c379a00000000000000000000000000000000000000000000000000000000081526004016105ce906113de565b60405180910390fd5b600260008273ffffffffffffffffffffffffffffffffffffffff1673ffffffffffffffffffffffffffffffffffffffff16815260200190815260200160002060000160009054906101000a900460ff1615610667576040517f08c379a000000000000000000000000000000000000000000000000000000000815260040161065e90611470565b60405180910390fd5b6001600260008373ffffffffffffffffffffffffffffffffffffffff1673ffffffffffffffffffffffffffffffffffffffff16815260200190815260200160002060000160006101000a81548160ff0219169083151502179055508073ffffffffffffffffffffffffffffffffffffffff167fb6be2187d059cc2a55fe29e0e503b566e1e0f8c8780096e185429350acffd3dd60405160405180910390a250565b60008054906101000a900473ffffffffffffffffffffffffffffffffffffffff1673ffffffffffffffffffffffffffffffffffffffff163373ffffffffffffffffffffffffffffffffffffffff1614610796576040517f08c379a000000000000000000000000000000000000000000000000000000000815260040161078d906113de565b60405180910390fd5b60008060028111156107ab576107aa610c72565b5b600460009054906101000a900460ff1660028111156107cd576107cc610c72565b5b1461080d576040517f08c379a0000000000000000000000000000000000000000000000000000000008152600401610804906110e5565b60405180910390fd5b60036000815480929190610820906112c4565b9190505550604051806060016040528060035481526020018381526020016000815250600160006003548152602001908152602001600020600082015181600001556020820151816001019081610877919061163c565b50604082015181600201559050506003547fe83b2a43e7e82d975c8a0a6d2f045153c869e111136a34d1889ab7b598e396a3836040516108b7919061170e565b60405180910390a25050565b60008054906101000a900473ffffffffffffffffffffffffffffffffffffffff1673ffffffffffffffffffffffffffffffffffffffff163373ffffffffffffffffffffffffffffffffffffffff1614610951576040517f08c379a0000000000000000000000000000000000000000000000000000000008152600401610948906113de565b60405180910390fd5b600180600281111561096657610965610c72565b5b600460009054906101000a900460ff16600281111561098857610987610c72565b5b146109c8576040517f08c379a00000000000000000000000000000000000000000000000000000000081526004016109bf906110e5565b60405180910390fd5b6002600460006101000a81548160ff021916908360028111156109ee576109ed610c72565b5b02179055507f2a98e9a4bda3266c85377571f662b98046c9f304e38872f4ab63b6899c02bf696002604051610a239190610ce9565b60405180910390a150565b60008054906101000a900473ffffffffffffffffffffffffffffffffffffffff1673ffffffffffffffffffffffffffffffffffffffff163373ffffffffffffffffffffffffffffffffffffffff1614610abc576040517f08c379a0000000000000000000000000000000000000000000000000000000008152600401610ab3906113de565b60405180910390fd5b6000806002811115610ad157610ad0610c72565b5b600460009054906101000a900460ff166002811115610af357610af2610c72565b5b14610b33576040517f08c379a0000000000000000000000000000000000000000000000000000000008152600401610b2a906110e5565b60405180910390fd5b6001600460006101000a81548160ff02191690836002811115610b5957610b58610c72565b5b02179055507f2a98e9a4bda3266c85377571f662b98046c9f304e38872f4ab63b6899c02bf696001604051610b8e9190610ce9565b60405180910390a150565b60008054906101000a900473ffffffffffffffffffffffffffffffffffffffff1681565b60026020528060005260406000206000915090508060000160009054906101000a900460ff16908060000160019054906101000a900460ff16905082565b6000604051905090565b600080fd5b600080fd5b6000819050919050565b610c2281610c0f565b8114610c2d57600080fd5b50565b600081359050610c3f81610c19565b92915050565b600060208284031215610c5b57610c5a610c05565b5b6000610c6984828501610c30565b91505092915050565b7f4e487b7100000000000000000000000000000000000000000000000000000000600052602160045260246000fd5b60038110610cb257610cb1610c72565b5b50565b6000819050610cc382610ca1565b919050565b6000610cd382610cb5565b9050919050565b610ce381610cc8565b82525050565b6000602082019050610cfe6000830184610cda565b92915050565b610d0d81610c0f565b82525050565b6000602082019050610d286000830184610d04565b92915050565b600081519050919050565b600082825260208201905092915050565b60005b83811015610d68578082015181840152602081019050610d4d565b60008484015250505050565b6000601f19601f8301169050919050565b6000610d9082610d2e565b610d9a8185610d39565b9350610daa818560208601610d4a565b610db381610d74565b840191505092915050565b6000606082019050610dd36000830186610d04565b8181036020830152610de58185610d85565b9050610df46040830184610d04565b949350505050565b600073ffffffffffffffffffffffffffffffffffffffff82169050919050565b6000610e2782610dfc565b9050919050565b610e3781610e1c565b8114610e4257600080fd5b50565b600081359050610e5481610e2e565b92915050565b600060208284031215610e7057610e6f610c05565b5b6000610e7e84828501610e45565b91505092915050565b600080fd5b600080fd5b7f4e487b7100000000000000000000000000000000000000000000000000000000600052604160045260246000fd5b610ec982610d74565b810181811067ffffffffffffffff82111715610ee857610ee7610e91565b5b80604052505050565b6000610efb610bfb565b9050610f078282610ec0565b919050565b600067ffffffffffffffff821115610f2757610f26610e91565b5b610f3082610d74565b9050602081019050919050565b82818337600083830152505050565b6000610f5f610f5a84610f0c565b610ef1565b905082815260208101848484011115610f7b57610f7a610e8c565b5b610f86848285610f3d565b509392505050565b600082601f830112610fa357610fa2610e87565b5b8135610fb3848260208601610f4c565b91505092915050565b600060208284031215610fd257610fd1610c05565b5b600082013567ffffffffffffffff811115610ff057610fef610c0a565b5b610ffc84828501610f8e565b91505092915050565b61100e81610e1c565b82525050565b60006020820190506110296000830184611005565b92915050565b60008115159050919050565b6110448161102f565b82525050565b600060408201905061105f600083018561103b565b61106c602083018461103b565b9392505050565b7f4572726f723a20456c656374696f6e206973206e6f7420696e2074686520726560008201527f7175697265642073746174652e00000000000000000000000000000000000000602082015250565b60006110cf602d83610d39565b91506110da82611073565b604082019050919050565b600060208201905081810360008301526110fe816110c2565b9050919050565b7f4572726f723a20596f7520617265206e6f74207265676973746572656420746f60008201527f20766f74652e0000000000000000000000000000000000000000000000000000602082015250565b6000611161602683610d39565b915061116c82611105565b604082019050919050565b6000602082019050818103600083015261119081611154565b9050919050565b7f4572726f723a20596f75206861766520616c7265616479206361737420796f7560008201527f7220766f74652e00000000000000000000000000000000000000000000000000602082015250565b60006111f3602783610d39565b91506111fe82611197565b604082019050919050565b60006020820190508181036000830152611222816111e6565b9050919050565b7f4572726f723a20496e76616c69642063616e6469646174652049442e00000000600082015250565b600061125f601c83610d39565b915061126a82611229565b602082019050919050565b6000602082019050818103600083015261128e81611252565b9050919050565b7f4e487b7100000000000000000000000000000000000000000000000000000000600052601160045260246000fd5b60006112cf82610c0f565b91507fffffffffffffffffffffffffffffffffffffffffffffffffffffffffffffffff820361130157611300611295565b5b600182019050919050565b7f4e487b7100000000000000000000000000000000000000000000000000000000600052602260045260246000fd5b6000600282049050600182168061135357607f821691505b6020821081036113665761136561130c565b5b50919050565b7f4572726f723a204f6e6c7920746865206f776e65722063616e2063616c6c207460008201527f6869732066756e6374696f6e2e00000000000000000000000000000000000000602082015250565b60006113c8602d83610d39565b91506113d38261136c565b604082019050919050565b600060208201905081810360008301526113f7816113bb565b9050919050565b7f4572726f723a20566f74657220697320616c726561647920726567697374657260008201527f65642e0000000000000000000000000000000000000000000000000000000000602082015250565b600061145a602383610d39565b9150611465826113fe565b604082019050919050565b600060208201905081810360008301526114898161144d565b9050919050565b60008190508160005260206000209050919050565b60006020601f8301049050919050565b600082821b905092915050565b6000600883026114f27fffffffffffffffffffffffffffffffffffffffffffffffffffffffffffffffff826114b5565b6114fc86836114b5565b95508019841693508086168417925050509392505050565b6000819050919050565b600061153961153461152f84610c0f565b611514565b610c0f565b9050919050565b6000819050919050565b6115538361151e565b61156761155f82611540565b8484546114c2565b825550505050565b600090565b61157c61156f565b61158781848461154a565b505050565b5b818110156115ab576115a0600082611574565b60018101905061158d565b5050565b601f8211156115f0576115c181611490565b6115ca846114a5565b810160208510156115d9578190505b6115ed6115e5856114a5565b83018261158c565b50505b505050565b600082821c905092915050565b6000611613600019846008026115f5565b1980831691505092915050565b600061162c8383611602565b9150826002028217905092915050565b61164582610d2e565b67ffffffffffffffff81111561165e5761165d610e91565b5b611668825461133b565b6116738282856115af565b600060209050601f8311600181146116a65760008415611694578287015190505b61169e8582611620565b865550611706565b601f1984166116b486611490565b60005b828110156116dc578489015182556001820191506020850194506020810190506116b7565b868310156116f957848901516116f5601f891682611602565b8355505b6001600288020188555050505b505050505050565b600060208201905081810360008301526117288184610d85565b90509291505056fea26469706673582212202120337ffa64d5835ba53bbc7d2fa009ada1dfdedbd71cf4a98f4c4c7d6a7b7e64736f6c63430008130033",
  "linkReferences": {},
  "deployedLinkReferences": {}
}