{
  "_format": "hh-sol-artifact-1",
  "contractName": "Voting",
  "sourceName": "contracts/voting.sol",
  "abi": [
    {
      "inputs": [],
      "stateMutability": "nonpayable",
      "type": "constructor"
    },
    {
      "anonymous": false,
      "inputs": [
        {
          "indexed": true,
          "internalType": "uint256",
          "name": "id",
          "type": "uint256"
        },
        {
          "indexed": false,
          "internalType": "string",
          "name": "name",
          "type": "string"
        }
      ],
      "name": "CandidateAdded",
      "type": "event"
    },
    {
      "anonymous": false,
      "inputs": [
        {
          "indexed": false,
          "internalType": "enum Voting.ElectionState",
          "name": "newState",
          "type": "uint8"
        }
      ],
      "name": "ElectionStatusChanged",
      "type": "event"
    },
    {
      "anonymous": false,
      "inputs": [
        {
          "indexed": true,
          "internalType": "address",
          "name": "voter",
          "type": "address"
        },
        {
          "indexed": true,
          "internalType": "uint256",
          "name": "candidateId",
          "type": "uint256"
        }
      ],
      "name": "Voted",
      "type": "event"
    },
    {
      "anonymous": false,
      "inputs": [
        {
          "indexed": true,
          "internalType": "address",
          "name": "voter",
          "type": "address"
        }
      ],
      "name": "VoterRegistered",
      "type": "event"
    },
    {
      "inputs": [
        {
          "internalType": "string",
          "name": "_name",
          "type": "string"
        }
      ],
      "name": "addCandidate",
      "outputs": [],
      "stateMutability": "nonpayable",
      "type": "function"
    },
    {
      "inputs": [
        {
          "internalType": "uint256",
          "name": "",
          "type": "uint256"
        }
      ],
      "name": "candidates",
      "outputs": [
        {
          "internalType": "uint256",
          "name": "id",
          "type": "uint256"
        },
        {
          "internalType": "string",
          "name": "name",
          "type": "string"
        },
        {
          "internalType": "uint256",
          "name": "voteCount",
          "type": "uint256"
        }
      ],
      "stateMutability": "view",
      "type": "function"
    },
    {
      "inputs": [],
      "name": "candidatesCount",
      "outputs": [
        {
          "internalType": "uint256",
          "name": "",
          "type": "uint256"
        }
      ],
      "stateMutability": "view",
      "type": "function"
    },
    {
      "inputs": [],
      "name": "electionState",
      "outputs": [
        {
          "internalType": "enum Voting.ElectionState",
          "name": "",
          "type": "uint8"
        }
      ],
      "stateMutability": "view",
      "type": "function"
    },
    {
      "inputs": [],
      "name": "endElection",
      "outputs": [],
      "stateMutability": "nonpayable",
      "type": "function"
    },
    {
      "inputs": [
        {
          "internalType": "address",
          "name": "_voter",
          "type": "address"
        }
      ],
      "name": "isVoterRegistered",
      "outputs": [
        {
          "internalType": "bool",
          "name": "",
          "type": "bool"
        }
      ],
      "stateMutability": "view",
      "type": "function"
    },
    {
      "inputs": [],
      "name": "owner",
      "outputs": [
        {
          "internalType": "address",
          "name": "",
          "type": "address"
        }
      ],
      "stateMutability": "view",
      "type": "function"
    },
    {
      "inputs": [
        {
          "internalType": "address",
          "name": "_voterAddress",
          "type": "address"
        }
      ],
      "name": "registerVoter",
      "outputs": [],
      "stateMutability": "nonpayable",
      "type": "function"
    },
    {
      "inputs": [],
      "name": "registerVoterBySelf",
      "outputs": [],
      "stateMutability": "nonpayable",
      "type": "function"
    },
    {
      "inputs": [],
      "name": "startElection",
      "outputs": [],
      "stateMutability": "nonpayable",
      "type": "function"
    },
    {
      "inputs": [
        {
          "internalType": "uint256",
          "name": "_candidateId",
          "type": "uint256"
        }
      ],
      "name": "vote",
      "outputs": [],
      "stateMutability": "nonpayable",
      "type": "function"
    },
    {
      "inputs": [
        {
          "internalType": "address",
          "name": "",
          "type": "address"
        }
      ],
      "name": "voters",
      "outputs": [
        {
          "internalType": "bool",
          "name": "isRegistered",
          "type": "bool"
        },
        {
          "internalType": "bool",
          "name": "hasVoted",
          "type": "bool"
        }
      ],
      "stateMutability": "view",
      "type": "function"
    }
  ],
  "bytecode": "0x608060405234801561001057600080fd5b50336000806101000a81548173ffffffffffffffffffffffffffffffffffffffff021916908373ffffffffffffffffffffffffffffffffffffffff1602179055506000600460006101000a81548160ff0219169083600281111561007757610076610081565b5b02179055506100b0565b7f4e487b7100000000000000000000000000000000000000000000000000000000600052602160045260246000fd5b6119ec806100bf6000396000f3fe608060405234801561001057600080fd5b50600436106100b45760003560e01c806359f784681161007157806359f784681461017b57806362d73eb8146101855780638648cc171461018f5780638da5cb5b14610199578063a3ec138d146101b7578063eb2119db146101e8576100b4565b80630121b93f146100b95780632280043d146100d55780632d35a8a2146100f35780633477ee2e1461011157806338db6dd314610143578063462e91ec1461015f575b600080fd5b6100d360048036038101906100ce9190610e1e565b610218565b005b6100dd6104ce565b6040516100ea9190610ec2565b60405180910390f35b6100fb6104e1565b6040516101089190610eec565b60405180910390f35b61012b60048036038101906101269190610e1e565b6104e7565b60405161013a93929190610f97565b60405180910390f35b61015d60048036038101906101589190611033565b610599565b005b61017960048036038101906101749190611195565b610758565b005b610183610913565b005b61018d610a7e565b005b610197610be9565b005b6101a1610d19565b6040516101ae91906111ed565b60405180910390f35b6101d160048036038101906101cc9190611033565b610d3d565b6040516101df929190611223565b60405180910390f35b61020260048036038101906101fd9190611033565b610d7b565b60405161020f919061124c565b60405180910390f35b600180600281111561022d5761022c610e4b565b5b600460009054906101000a900460ff16600281111561024f5761024e610e4b565b5b1461028f576040517f08c379a0000000000000000000000000000000000000000000000000000000008152600401610286906112d9565b60405180910390fd5b600260003373ffffffffffffffffffffffffffffffffffffffff1673ffffffffffffffffffffffffffffffffffffffff16815260200190815260200160002060000160009054906101000a900460ff1661031e576040517f08c379a00000000000000000000000000000000000000000000000000000000081526004016103159061136b565b60405180910390fd5b600260003373ffffffffffffffffffffffffffffffffffffffff1673ffffffffffffffffffffffffffffffffffffffff16815260200190815260200160002060000160019054906101000a900460ff16156103ae576040517f08c379a00000000000000000000000000000000000000000000000000000000081526004016103a5906113fd565b60405180910390fd5b6000821180156103c057506003548211155b6103ff576040517f08c379a00000000000000000000000000000000000000000000000000000000081526004016103f690611469565b60405180910390fd5b6001600260003373ffffffffffffffffffffffffffffffffffffffff1673ffffffffffffffffffffffffffffffffffffffff16815260200190815260200160002060000160016101000a81548160ff021916908315150217905550600160008381526020019081526020016000206002016000815480929190610481906114b8565b9190505550813373ffffffffffffffffffffffffffffffffffffffff167f4d99b957a2bc29a30ebd96a7be8e68fe50a3c701db28a91436490b7d53870ca460405160405180910390a35050565b600460009054906101000a900460ff1681565b60035481565b60016020528060005260406000206000915090508060000154908060010180546105109061152f565b80601f016020809104026020016040519081016040528092919081815260200182805461053c9061152f565b80156105895780601f1061055e57610100808354040283529160200191610589565b820191906000526020600020905b81548152906001019060200180831161056c57829003601f168201915b5050505050908060020154905083565b60008054906101000a900473ffffffffffffffffffffffffffffffffffffffff1673ffffffffffffffffffffffffffffffffffffffff163373ffffffffffffffffffffffffffffffffffffffff1614610627576040517f08c379a000000000000000000000000000000000000000000000000000000000815260040161061e906115d2565b60405180910390fd5b600260008273ffffffffffffffffffffffffffffffffffffffff1673ffffffffffffffffffffffffffffffffffffffff16815260200190815260200160002060000160009054906101000a900460ff16156106b7576040517f08c379a00000000000000000000000000000000000000000000000000000000081526004016106ae90611664565b60405180910390fd5b6001600260008373ffffffffffffffffffffffffffffffffffffffff1673ffffffffffffffffffffffffffffffffffffffff16815260200190815260200160002060000160006101000a81548160ff0219169083151502179055508073ffffffffffffffffffffffffffffffffffffffff167fb6be2187d059cc2a55fe29e0e503b566e1e0f8c8780096e185429350acffd3dd60405160405180910390a250565b60008054906101000a900473ffffffffffffffffffffffffffffffffffffffff1673ffffffffffffffffffffffffffffffffffffffff163373ffffffffffffffffffffffffffffffffffffffff16146107e6576040517f08c379a00000000000000000000000000000000000000000000000000000000081526004016107dd906115d2565b60405180910390fd5b60008060028111156107fb576107fa610e4b565b5b600460009054906101000a900460ff16600281111561081d5761081c610e4b565b5b1461085d576040517f08c379a0000000000000000000000000000000000000000000000000000000008152600401610854906112d9565b60405180910390fd5b60036000815480929190610870906114b8565b91905055506040518060600160405280600354815260200183815260200160008152506001600060035481526020019081526020016000206000820151816000015560208201518160010190816108c79190611830565b50604082015181600201559050506003547fe83b2a43e7e82d975c8a0a6d2f045153c869e111136a34d1889ab7b598e396a3836040516109079190611902565b60405180910390a25050565b60008054906101000a900473ffffffffffffffffffffffffffffffffffffffff1673ffffffffffffffffffffffffffffffffffffffff163373ffffffffffffffffffffffffffffffffffffffff16146109a1576040517f08c379a0000000000000000000000000000000000000000000000000000000008152600401610998906115d2565b60405180910390fd5b60018060028111156109b6576109b5610e4b565b5b600460009054906101000a900460ff1660028111156109d8576109d7610e4b565b5b14610a18576040517f08c379a0000000000000000000000000000000000000000000000000000000008152600401610a0f906112d9565b60405180910390fd5b6002600460006101000a81548160ff02191690836002811115610a3e57610a3d610e4b565b5b02179055507f2a98e9a4bda3266c85377571f662b98046c9f304e38872f4ab63b6899c02bf696002604051610a739190610ec2565b60405180910390a150565b60008054906101000a900473ffffffffffffffffffffffffffffffffffffffff1673ffffffffffffffffffffffffffffffffffffffff163373ffffffffffffffffffffffffffffffffffffffff1614610b0c576040517f08c379a0000000000000000000000000000000000000000000000000000000008152600401610b03906115d2565b60405180910390fd5b6000806002811115610b2157610b20610e4b565b5b600460009054906101000a900460ff166002811115610b4357610b42610e4b565b5b14610b83576040517f08c379a0000000000000000000000000000000000000000000000000000000008152600401610b7a906112d9565b60405180910390fd5b6001600460006101000a81548160ff02191690836002811115610ba957610ba8610e4b565b5b02179055507f2a98e9a4bda3266c85377571f662b98046c9f304e38872f4ab63b6899c02bf696001604051610bde9190610ec2565b60405180910390a150565b600260003373ffffffffffffffffffffffffffffffffffffffff1673ffffffffffffffffffffffffffffffffffffffff16815260200190815260200160002060000160009054906101000a900460ff1615610c79576040517f08c379a0000000000000000000000000000000000000000000000000000000008152600401610c7090611996565b60405180910390fd5b6001600260003373ffffffffffffffffffffffffffffffffffffffff1673ffffffffffffffffffffffffffffffffffffffff16815260200190815260200160002060000160006101000a81548160ff0219169083151502179055503373ffffffffffffffffffffffffffffffffffffffff167fb6be2187d059cc2a55fe29e0e503b566e1e0f8c8780096e185429350acffd3dd60405160405180910390a2565b60008054906101000a900473ffffffffffffffffffffffffffffffffffffffff1681565b60026020528060005260406000206000915090508060000160009054906101000a900460ff16908060000160019054906101000a900460ff16905082565b6000600260008373ffffffffffffffffffffffffffffffffffffffff1673ffffffffffffffffffffffffffffffffffffffff16815260200190815260200160002060000160009054906101000a900460ff169050919050565b6000604051905090565b600080fd5b600080fd5b6000819050919050565b610dfb81610de8565b8114610e0657600080fd5b50565b600081359050610e1881610df2565b92915050565b600060208284031215610e3457610e33610dde565b5b6000610e4284828501610e09565b91505092915050565b7f4e487b7100000000000000000000000000000000000000000000000000000000600052602160045260246000fd5b60038110610e8b57610e8a610e4b565b5b50565b6000819050610e9c82610e7a565b919050565b6000610eac82610e8e565b9050919050565b610ebc81610ea1565b82525050565b6000602082019050610ed76000830184610eb3565b92915050565b610ee681610de8565b82525050565b6000602082019050610f016000830184610edd565b92915050565b600081519050919050565b600082825260208201905092915050565b60005b83811015610f41578082015181840152602081019050610f26565b60008484015250505050565b6000601f19601f8301169050919050565b6000610f6982610f07565b610f738185610f12565b9350610f83818560208601610f23565b610f8c81610f4d565b840191505092915050565b6000606082019050610fac6000830186610edd565b8181036020830152610fbe8185610f5e565b9050610fcd6040830184610edd565b949350505050565b600073ffffffffffffffffffffffffffffffffffffffff82169050919050565b600061100082610fd5565b9050919050565b61101081610ff5565b811461101b57600080fd5b50565b60008135905061102d81611007565b92915050565b60006020828403121561104957611048610dde565b5b60006110578482850161101e565b91505092915050565b600080fd5b600080fd5b7f4e487b7100000000000000000000000000000000000000000000000000000000600052604160045260246000fd5b6110a282610f4d565b810181811067ffffffffffffffff821117156110c1576110c061106a565b5b80604052505050565b60006110d4610dd4565b90506110e08282611099565b919050565b600067ffffffffffffffff821115611100576110ff61106a565b5b61110982610f4d565b9050602081019050919050565b82818337600083830152505050565b6000611138611133846110e5565b6110ca565b90508281526020810184848401111561115457611153611065565b5b61115f848285611116565b509392505050565b600082601f83011261117c5761117b611060565b5b813561118c848260208601611125565b91505092915050565b6000602082840312156111ab576111aa610dde565b5b600082013567ffffffffffffffff8111156111c9576111c8610de3565b5b6111d584828501611167565b91505092915050565b6111e781610ff5565b82525050565b600060208201905061120260008301846111de565b92915050565b60008115159050919050565b61121d81611208565b82525050565b60006040820190506112386000830185611214565b6112456020830184611214565b9392505050565b60006020820190506112616000830184611214565b92915050565b7f4572726f723a20456c656374696f6e206973206e6f7420696e2074686520726560008201527f7175697265642073746174652e00000000000000000000000000000000000000602082015250565b60006112c3602d83610f12565b91506112ce82611267565b604082019050919050565b600060208201905081810360008301526112f2816112b6565b9050919050565b7f4572726f723a20596f7520617265206e6f74207265676973746572656420746f60008201527f20766f74652e0000000000000000000000000000000000000000000000000000602082015250565b6000611355602683610f12565b9150611360826112f9565b604082019050919050565b6000602082019050818103600083015261138481611348565b9050919050565b7f4572726f723a20596f75206861766520616c7265616479206361737420796f7560008201527f7220766f74652e00000000000000000000000000000000000000000000000000602082015250565b60006113e7602783610f12565b91506113f28261138b565b604082019050919050565b60006020820190508181036000830152611416816113da565b9050919050565b7f4572726f723a20496e76616c69642063616e6469646174652049442e00000000600082015250565b6000611453601c83610f12565b915061145e8261141d565b602082019050919050565b6000602082019050818103600083015261148281611446565b9050919050565b7f4e487b7100000000000000000000000000000000000000000000000000000000600052601160045260246000fd5b60006114c382610de8565b91507fffffffffffffffffffffffffffffffffffffffffffffffffffffffffffffffff82036114f5576114f4611489565b5b600182019050919050565b7f4e487b7100000000000000000000000000000000000000000000000000000000600052602260045260246000fd5b6000600282049050600182168061154757607f821691505b60208210810361155a57611559611500565b5b50919050565b7f4572726f723a204f6e6c7920746865206f776e65722063616e2063616c6c207460008201527f6869732066756e6374696f6e2e00000000000000000000000000000000000000602082015250565b60006115bc602d83610f12565b91506115c782611560565b604082019050919050565b600060208201905081810360008301526115eb816115af565b9050919050565b7f4572726f723a20566f74657220697320616c726561647920726567697374657260008201527f65642e0000000000000000000000000000000000000000000000000000000000602082015250565b600061164e602383610f12565b9150611659826115f2565b604082019050919050565b6000602082019050818103600083015261167d81611641565b9050919050565b60008190508160005260206000209050919050565b60006020601f8301049050919050565b600082821b905092915050565b6000600883026116e67fffffffffffffffffffffffffffffffffffffffffffffffffffffffffffffffff826116a9565b6116f086836116a9565b95508019841693508086168417925050509392505050565b6000819050919050565b600061172d61172861172384610de8565b611708565b610de8565b9050919050565b6000819050919050565b61174783611712565b61175b61175382611734565b8484546116b6565b825550505050565b600090565b611770611763565b61177b81848461173e565b505050565b5b8181101561179f57611794600082611768565b600181019050611781565b5050565b601f8211156117e4576117b581611684565b6117be84611699565b810160208510156117cd578190505b6117e16117d985611699565b830182611780565b50505b505050565b600082821c905092915050565b6000611807600019846008026117e9565b1980831691505092915050565b600061182083836117f6565b9150826002028217905092915050565b61183982610f07565b67ffffffffffffffff8111156118525761185161106a565b5b61185c825461152f565b6118678282856117a3565b600060209050601f83116001811461189a5760008415611888578287015190505b6118928582611814565b8655506118fa565b601f1984166118a886611684565b60005b828110156118d0578489015182556001820191506020850194506020810190506118ab565b868310156118ed57848901516118e9601f8916826117f6565b8355505b6001600288020188555050505b505050505050565b6000602082019050818103600083015261191c8184610f5e565b905092915050565b7f4572726f723a20596f752061726520616c72656164792072656769737465726560008201527f64206173206120766f7465722e00000000000000000000000000000000000000602082015250565b6000611980602d83610f12565b915061198b82611924565b604082019050919050565b600060208201905081810360008301526119af81611973565b905091905056fea26469706673582212203b70d4d0e7381d5938524fdee9357a7c6e99a3103dea26cd31be46e2c256d17364736f6c63430008130033",
  "linkReferences": {},
  "deployedLinkReferences": {}
}