{"contracts/voting.sol":{"Voting":{"abi":[{"inputs":[],"stateMutability":"nonpayable","type":"constructor"},{"anonymous":false,"inputs":[{"indexed":true,"internalType":"uint256","name":"id","type":"uint256"},{"indexed":false,"internalType":"string","name":"name","type":"string"}],"name":"CandidateAdded","type":"event"},{"anonymous":false,"inputs":[{"indexed":false,"internalType":"enum Voting.ElectionState","name":"newState","type":"uint8"}],"name":"ElectionStatusChanged","type":"event"},{"anonymous":false,"inputs":[{"indexed":true,"internalType":"address","name":"voter","type":"address"},{"indexed":true,"internalType":"uint256","name":"candidateId","type":"uint256"}],"name":"Voted","type":"event"},{"anonymous":false,"inputs":[{"indexed":true,"internalType":"address","name":"voter","type":"address"}],"name":"VoterRegistered","type":"event"},{"inputs":[{"internalType":"string","name":"_name","type":"string"}],"name":"addCandidate","outputs":[],"stateMutability":"nonpayable","type":"function"},{"inputs":[{"internalType":"uint256","name":"","type":"uint256"}],"name":"candidates","outputs":[{"internalType":"uint256","name":"id","type":"uint256"},{"internalType":"string","name":"name","type":"string"},{"internalType":"uint256","name":"voteCount","type":"uint256"}],"stateMutability":"view","type":"function"},{"inputs":[],"name":"candidatesCount","outputs":[{"internalType":"uint256","name":"","type":"uint256"}],"stateMutability":"view","type":"function"},{"inputs":[],"name":"electionState","outputs":[{"internalType":"enum Voting.ElectionState","name":"","type":"uint8"}],"stateMutability":"view","type":"function"},{"inputs":[],"name":"endElection","outputs":[],"stateMutability":"nonpayable","type":"function"},{"inputs":[],"name":"owner","outputs":[{"internalType":"address","name":"","type":"address"}],"stateMutability":"view","type":"function"},{"inputs":[{"internalType":"address","name":"_voterAddress","type":"address"}],"name":"registerVoter","outputs":[],"stateMutability":"nonpayable","type":"function"},{"inputs":[],"name":"startElection","outputs":[],"stateMutability":"nonpayable","type":"function"},{"inputs":[{"internalType":"uint256","name":"_candidateId","type":"uint256"}],"name":"vote","outputs":[],"stateMutability":"nonpayable","type":"function"},{"inputs":[{"internalType":"address","name":"","type":"address"}],"name":"voters","outputs":[{"internalType":"bool","name":"isRegistered","type":"bool"},{"internalType":"bool","name":"hasVoted","type":"bool"}],"stateMutability":"view","type":"function"}],"evm":{"bytecode":{"linkReferences":{},"object":"608060405234801561001057600080fd5b50336000806101000a81548173ffffffffffffffffffffffffffffffffffffffff021916908373ffffffffffffffffffffffffffffffffffffffff1602179055506000600460006101000a81548160ff0219169083600281111561007757610076610081565b5b02179055506100b0565b7f4e487b7100000000000000000000000000000000000000000000000000000000600052602160045260246000fd5b611766806100bf6000396000f3fe608060405234801561001057600080fd5b506004361061009e5760003560e01c8063462e91ec11610066578063462e91ec1461014957806359f784681461016557806362d73eb81461016f5780638da5cb5b14610179578063a3ec138d146101975761009e565b80630121b93f146100a35780632280043d146100bf5780632d35a8a2146100dd5780633477ee2e146100fb57806338db6dd31461012d575b600080fd5b6100bd60048036038101906100b89190610c45565b6101c8565b005b6100c761047e565b6040516100d49190610ce9565b60405180910390f35b6100e5610491565b6040516100f29190610d13565b60405180910390f35b61011560048036038101906101109190610c45565b610497565b60405161012493929190610dbe565b60405180910390f35b61014760048036038101906101429190610e5a565b610549565b005b610163600480360381019061015e9190610fbc565b610708565b005b61016d6108c3565b005b610177610a2e565b005b610181610b99565b60405161018e9190611014565b60405180910390f35b6101b160048036038101906101ac9190610e5a565b610bbd565b6040516101bf92919061104a565b60405180910390f35b60018060028111156101dd576101dc610c72565b5b600460009054906101000a900460ff1660028111156101ff576101fe610c72565b5b1461023f576040517f08c379a0000000000000000000000000000000000000000000000000000000008152600401610236906110e5565b60405180910390fd5b600260003373ffffffffffffffffffffffffffffffffffffffff1673ffffffffffffffffffffffffffffffffffffffff16815260200190815260200160002060000160009054906101000a900460ff166102ce576040517f08c379a00000000000000000000000000000000000000000000000000000000081526004016102c590611177565b60405180910390fd5b600260003373ffffffffffffffffffffffffffffffffffffffff1673ffffffffffffffffffffffffffffffffffffffff16815260200190815260200160002060000160019054906101000a900460ff161561035e576040517f08c379a000000000000000000000000000000000000000000000000000000000815260040161035590611209565b60405180910390fd5b60008211801561037057506003548211155b6103af576040517f08c379a00000000000000000000000000000000000000000000000000000000081526004016103a690611275565b60405180910390fd5b6001600260003373ffffffffffffffffffffffffffffffffffffffff1673ffffffffffffffffffffffffffffffffffffffff16815260200190815260200160002060000160016101000a81548160ff021916908315150217905550600160008381526020019081526020016000206002016000815480929190610431906112c4565b9190505550813373ffffffffffffffffffffffffffffffffffffffff167f4d99b957a2bc29a30ebd96a7be8e68fe50a3c701db28a91436490b7d53870ca460405160405180910390a35050565b600460009054906101000a900460ff1681565b60035481565b60016020528060005260406000206000915090508060000154908060010180546104c09061133b565b80601f01602080910402602001604051908101604052809291908181526020018280546104ec9061133b565b80156105395780601f1061050e57610100808354040283529160200191610539565b820191906000526020600020905b81548152906001019060200180831161051c57829003601f168201915b5050505050908060020154905083565b60008054906101000a900473ffffffffffffffffffffffffffffffffffffffff1673ffffffffffffffffffffffffffffffffffffffff163373ffffffffffffffffffffffffffffffffffffffff16146105d7576040517f08c379a00000000000000000000000000000000000000000000000000000000081526004016105ce906113de565b60405180910390fd5b600260008273ffffffffffffffffffffffffffffffffffffffff1673ffffffffffffffffffffffffffffffffffffffff16815260200190815260200160002060000160009054906101000a900460ff1615610667576040517f08c379a000000000000000000000000000000000000000000000000000000000815260040161065e90611470565b60405180910390fd5b6001600260008373ffffffffffffffffffffffffffffffffffffffff1673ffffffffffffffffffffffffffffffffffffffff16815260200190815260200160002060000160006101000a81548160ff0219169083151502179055508073ffffffffffffffffffffffffffffffffffffffff167fb6be2187d059cc2a55fe29e0e503b566e1e0f8c8780096e185429350acffd3dd60405160405180910390a250565b60008054906101000a900473ffffffffffffffffffffffffffffffffffffffff1673ffffffffffffffffffffffffffffffffffffffff163373ffffffffffffffffffffffffffffffffffffffff1614610796576040517f08c379a000000000000000000000000000000000000000000000000000000000815260040161078d906113de565b60405180910390fd5b60008060028111156107ab576107aa610c72565b5b600460009054906101000a900460ff1660028111156107cd576107cc610c72565b5b1461080d576040517f08c379a0000000000000000000000000000000000000000000000000000000008152600401610804906110e5565b60405180910390fd5b60036000815480929190610820906112c4565b9190505550604051806060016040528060035481526020018381526020016000815250600160006003548152602001908152602001600020600082015181600001556020820151816001019081610877919061163c565b50604082015181600201559050506003547fe83b2a43e7e82d975c8a0a6d2f045153c869e111136a34d1889ab7b598e396a3836040516108b7919061170e565b60405180910390a25050565b60008054906101000a900473ffffffffffffffffffffffffffffffffffffffff1673ffffffffffffffffffffffffffffffffffffffff163373ffffffffffffffffffffffffffffffffffffffff1614610951576040517f08c379a0000000000000000000000000000000000000000000000000000000008152600401610948906113de565b60405180910390fd5b600180600281111561096657610965610c72565b5b600460009054906101000a900460ff16600281111561098857610987610c72565b5b146109c8576040517f08c379a00000000000000000000000000000000000000000000000000000000081526004016109bf906110e5565b60405180910390fd5b6002600460006101000a81548160ff021916908360028111156109ee576109ed610c72565b5b02179055507f2a98e9a4bda3266c85377571f662b98046c9f304e38872f4ab63b6899c02bf696002604051610a239190610ce9565b60405180910390a150565b60008054906101000a900473ffffffffffffffffffffffffffffffffffffffff1673ffffffffffffffffffffffffffffffffffffffff163373ffffffffffffffffffffffffffffffffffffffff1614610abc576040517f08c379a0000000000000000000000000000000000000000000000000000000008152600401610ab3906113de565b60405180910390fd5b6000806002811115610ad157610ad0610c72565b5b600460009054906101000a900460ff166002811115610af357610af2610c72565b5b14610b33576040517f08c379a0000000000000000000000000000000000000000000000000000000008152600401610b2a906110e5565b60405180910390fd5b6001600460006101000a81548160ff02191690836002811115610b5957610b58610c72565b5b02179055507f2a98e9a4bda3266c85377571f662b98046c9f304e38872f4ab63b6899c02bf696001604051610b8e9190610ce9565b60405180910390a150565b60008054906101000a900473ffffffffffffffffffffffffffffffffffffffff1681565b60026020528060005260406000206000915090508060000160009054906101000a900460ff16908060000160019054906101000a900460ff16905082565b6000604051905090565b600080fd5b600080fd5b6000819050919050565b610c2281610c0f565b8114610c2d57600080fd5b50565b600081359050610c3f81610c19565b92915050565b600060208284031215610c5b57610c5a610c05565b5b6000610c6984828501610c30565b91505092915050565b7f4e487b7100000000000000000000000000000000000000000000000000000000600052602160045260246000fd5b60038110610cb257610cb1610c72565b5b50565b6000819050610cc382610ca1565b919050565b6000610cd382610cb5565b9050919050565b610ce381610cc8565b82525050565b6000602082019050610cfe6000830184610cda565b92915050565b610d0d81610c0f565b82525050565b6000602082019050610d286000830184610d04565b92915050565b600081519050919050565b600082825260208201905092915050565b60005b83811015610d68578082015181840152602081019050610d4d565b60008484015250505050565b6000601f19601f8301169050919050565b6000610d9082610d2e565b610d9a8185610d39565b9350610daa818560208601610d4a565b610db381610d74565b840191505092915050565b6000606082019050610dd36000830186610d04565b8181036020830152610de58185610d85565b9050610df46040830184610d04565b949350505050565b600073ffffffffffffffffffffffffffffffffffffffff82169050919050565b6000610e2782610dfc565b9050919050565b610e3781610e1c565b8114610e4257600080fd5b50565b600081359050610e5481610e2e565b92915050565b600060208284031215610e7057610e6f610c05565b5b6000610e7e84828501610e45565b91505092915050565b600080fd5b600080fd5b7f4e487b7100000000000000000000000000000000000000000000000000000000600052604160045260246000fd5b610ec982610d74565b810181811067ffffffffffffffff82111715610ee857610ee7610e91565b5b80604052505050565b6000610efb610bfb565b9050610f078282610ec0565b919050565b600067ffffffffffffffff821115610f2757610f26610e91565b5b610f3082610d74565b9050602081019050919050565b82818337600083830152505050565b6000610f5f610f5a84610f0c565b610ef1565b905082815260208101848484011115610f7b57610f7a610e8c565b5b610f86848285610f3d565b509392505050565b600082601f830112610fa357610fa2610e87565b5b8135610fb3848260208601610f4c565b91505092915050565b600060208284031215610fd257610fd1610c05565b5b600082013567ffffffffffffffff811115610ff057610fef610c0a565b5b610ffc84828501610f8e565b91505092915050565b61100e81610e1c565b82525050565b60006020820190506110296000830184611005565b92915050565b60008115159050919050565b6110448161102f565b82525050565b600060408201905061105f600083018561103b565b61106c602083018461103b565b9392505050565b7f4572726f723a20456c656374696f6e206973206e6f7420696e2074686520726560008201527f7175697265642073746174652e00000000000000000000000000000000000000602082015250565b60006110cf602d83610d39565b91506110da82611073565b604082019050919050565b600060208201905081810360008301526110fe816110c2565b9050919050565b7f4572726f723a20596f7520617265206e6f74207265676973746572656420746f60008201527f20766f74652e0000000000000000000000000000000000000000000000000000602082015250565b6000611161602683610d39565b915061116c82611105565b604082019050919050565b6000602082019050818103600083015261119081611154565b9050919050565b7f4572726f723a20596f75206861766520616c7265616479206361737420796f7560008201527f7220766f74652e00000000000000000000000000000000000000000000000000602082015250565b60006111f3602783610d39565b91506111fe82611197565b604082019050919050565b60006020820190508181036000830152611222816111e6565b9050919050565b7f4572726f723a20496e76616c69642063616e6469646174652049442e00000000600082015250565b600061125f601c83610d39565b915061126a82611229565b602082019050919050565b6000602082019050818103600083015261128e81611252565b9050919050565b7f4e487b7100000000000000000000000000000000000000000000000000000000600052601160045260246000fd5b60006112cf82610c0f565b91507fffffffffffffffffffffffffffffffffffffffffffffffffffffffffffffffff820361130157611300611295565b5b600182019050919050565b7f4e487b7100000000000000000000000000000000000000000000000000000000600052602260045260246000fd5b6000600282049050600182168061135357607f821691505b6020821081036113665761136561130c565b5b50919050565b7f4572726f723a204f6e6c7920746865206f776e65722063616e2063616c6c207460008201527f6869732066756e6374696f6e2e00000000000000000000000000000000000000602082015250565b60006113c8602d83610d39565b91506113d38261136c565b604082019050919050565b600060208201905081810360008301526113f7816113bb565b9050919050565b7f4572726f723a20566f74657220697320616c726561647920726567697374657260008201527f65642e0000000000000000000000000000000000000000000000000000000000602082015250565b600061145a602383610d39565b9150611465826113fe565b604082019050919050565b600060208201905081810360008301526114898161144d565b9050919050565b60008190508160005260206000209050919050565b60006020601f8301049050919050565b600082821b905092915050565b6000600883026114f27fffffffffffffffffffffffffffffffffffffffffffffffffffffffffffffffff826114b5565b6114fc86836114b5565b95508019841693508086168417925050509392505050565b6000819050919050565b600061153961153461152f84610c0f565b611514565b610c0f565b9050919050565b6000819050919050565b6115538361151e565b61156761155f82611540565b8484546114c2565b825550505050565b600090565b61157c61156f565b61158781848461154a565b505050565b5b818110156115ab576115a0600082611574565b60018101905061158d565b5050565b601f8211156115f0576115c181611490565b6115ca846114a5565b810160208510156115d9578190505b6115ed6115e5856114a5565b83018261158c565b50505b505050565b600082821c905092915050565b6000611613600019846008026115f5565b1980831691505092915050565b600061162c8383611602565b9150826002028217905092915050565b61164582610d2e565b67ffffffffffffffff81111561165e5761165d610e91565b5b611668825461133b565b6116738282856115af565b600060209050601f8311600181146116a65760008415611694578287015190505b61169e8582611620565b865550611706565b601f1984166116b486611490565b60005b828110156116dc578489015182556001820191506020850194506020810190506116b7565b868310156116f957848901516116f5601f891682611602565b8355505b6001600288020188555050505b505050505050565b600060208201905081810360008301526117288184610d85565b90509291505056fea26469706673582212202120337ffa64d5835ba53bbc7d2fa009ada1dfdedbd71cf4a98f4c4c7d6a7b7e64736f6c63430008130033","opcodes":"PUSH1 0x80 PUSH1 0x40 MSTORE CALLVALUE DUP1 ISZERO PUSH2 0x10 JUMPI PUSH1 0x0 DUP1 REVERT JUMPDEST POP CALLER PUSH1 0x0 DUP1 PUSH2 0x100 EXP DUP2 SLOAD DUP2 PUSH20 0xFFFFFFFFFFFFFFFFFFFFFFFFFFFFFFFFFFFFFFFF MUL NOT AND SWAP1 DUP4 PUSH20 0xFFFFFFFFFFFFFFFFFFFFFFFFFFFFFFFFFFFFFFFF AND MUL OR SWAP1 SSTORE POP PUSH1 0x0 PUSH1 0x4 PUSH1 0x0 PUSH2 0x100 EXP DUP2 SLOAD DUP2 PUSH1 0xFF MUL NOT AND SWAP1 DUP4 PUSH1 0x2 DUP2 GT ISZERO PUSH2 0x77 JUMPI PUSH2 0x76 PUSH2 0x81 JUMP JUMPDEST JUMPDEST MUL OR SWAP1 SSTORE POP PUSH2 0xB0 JUMP JUMPDEST PUSH32 0x4E487B7100000000000000000000000000000000000000000000000000000000 PUSH1 0x0 MSTORE PUSH1 0x21 PUSH1 0x4 MSTORE PUSH1 0x24 PUSH1 0x0 REVERT JUMPDEST PUSH2 0x1766 DUP1 PUSH2 0xBF PUSH1 0x0 CODECOPY PUSH1 0x0 RETURN INVALID PUSH1 0x80 PUSH1 0x40 MSTORE CALLVALUE DUP1 ISZERO PUSH2 0x10 JUMPI PUSH1 0x0 DUP1 REVERT JUMPDEST POP PUSH1 0x4 CALLDATASIZE LT PUSH2 0x9E JUMPI PUSH1 0x0 CALLDATALOAD PUSH1 0xE0 SHR DUP1 PUSH4 0x462E91EC GT PUSH2 0x66 JUMPI DUP1 PUSH4 0x462E91EC EQ PUSH2 0x149 JUMPI DUP1 PUSH4 0x59F78468 EQ PUSH2 0x165 JUMPI DUP1 PUSH4 0x62D73EB8 EQ PUSH2 0x16F JUMPI DUP1 PUSH4 0x8DA5CB5B EQ PUSH2 0x179 JUMPI DUP1 PUSH4 0xA3EC138D EQ PUSH2 0x197 JUMPI PUSH2 0x9E JUMP JUMPDEST DUP1 PUSH4 0x121B93F EQ PUSH2 0xA3 JUMPI DUP1 PUSH4 0x2280043D EQ PUSH2 0xBF JUMPI DUP1 PUSH4 0x2D35A8A2 EQ PUSH2 0xDD JUMPI DUP1 PUSH4 0x3477EE2E EQ PUSH2 0xFB JUMPI DUP1 PUSH4 0x38DB6DD3 EQ PUSH2 0x12D JUMPI JUMPDEST PUSH1 0x0 DUP1 REVERT JUMPDEST PUSH2 0xBD PUSH1 0x4 DUP1 CALLDATASIZE SUB DUP2 ADD SWAP1 PUSH2 0xB8 SWAP2 SWAP1 PUSH2 0xC45 JUMP JUMPDEST PUSH2 0x1C8 JUMP JUMPDEST STOP JUMPDEST PUSH2 0xC7 PUSH2 0x47E JUMP JUMPDEST PUSH1 0x40 MLOAD PUSH2 0xD4 SWAP2 SWAP1 PUSH2 0xCE9 JUMP JUMPDEST PUSH1 0x40 MLOAD DUP1 SWAP2 SUB SWAP1 RETURN JUMPDEST PUSH2 0xE5 PUSH2 0x491 JUMP JUMPDEST PUSH1 0x40 MLOAD PUSH2 0xF2 SWAP2 SWAP1 PUSH2 0xD13 JUMP JUMPDEST PUSH1 0x40 MLOAD DUP1 SWAP2 SUB SWAP1 RETURN JUMPDEST PUSH2 0x115 PUSH1 0x4 DUP1 CALLDATASIZE SUB DUP2 ADD SWAP1 PUSH2 0x110 SWAP2 SWAP1 PUSH2 0xC45 JUMP JUMPDEST PUSH2 0x497 JUMP JUMPDEST PUSH1 0x40 MLOAD PUSH2 0x124 SWAP4 SWAP3 SWAP2 SWAP1 PUSH2 0xDBE JUMP JUMPDEST PUSH1 0x40 MLOAD DUP1 SWAP2 SUB SWAP1 RETURN JUMPDEST PUSH2 0x147 PUSH1 0x4 DUP1 CALLDATASIZE SUB DUP2 ADD SWAP1 PUSH2 0x142 SWAP2 SWAP1 PUSH2 0xE5A JUMP JUMPDEST PUSH2 0x549 JUMP JUMPDEST STOP JUMPDEST PUSH2 0x163 PUSH1 0x4 DUP1 CALLDATASIZE SUB DUP2 ADD SWAP1 PUSH2 0x15E SWAP2 SWAP1 PUSH2 0xFBC JUMP JUMPDEST PUSH2 0x708 JUMP JUMPDEST STOP JUMPDEST PUSH2 0x16D PUSH2 0x8C3 JUMP JUMPDEST STOP JUMPDEST PUSH2 0x177 PUSH2 0xA2E JUMP JUMPDEST STOP JUMPDEST PUSH2 0x181 PUSH2 0xB99 JUMP JUMPDEST PUSH1 0x40 MLOAD PUSH2 0x18E SWAP2 SWAP1 PUSH2 0x1014 JUMP JUMPDEST PUSH1 0x40 MLOAD DUP1 SWAP2 SUB SWAP1 RETURN JUMPDEST PUSH2 0x1B1 PUSH1 0x4 DUP1 CALLDATASIZE SUB DUP2 ADD SWAP1 PUSH2 0x1AC SWAP2 SWAP1 PUSH2 0xE5A JUMP JUMPDEST PUSH2 0xBBD JUMP JUMPDEST PUSH1 0x40 MLOAD PUSH2 0x1BF SWAP3 SWAP2 SWAP1 PUSH2 0x104A JUMP JUMPDEST PUSH1 0x40 MLOAD DUP1 SWAP2 SUB SWAP1 RETURN JUMPDEST PUSH1 0x1 DUP1 PUSH1 0x2 DUP2 GT ISZERO PUSH2 0x1DD JUMPI PUSH2 0x1DC PUSH2 0xC72 JUMP JUMPDEST JUMPDEST PUSH1 0x4 PUSH1 0x0 SWAP1 SLOAD SWAP1 PUSH2 0x100 EXP SWAP1 DIV PUSH1 0xFF AND PUSH1 0x2 DUP2 GT ISZERO PUSH2 0x1FF JUMPI PUSH2 0x1FE PUSH2 0xC72 JUMP JUMPDEST JUMPDEST EQ PUSH2 0x23F JUMPI PUSH1 0x40 MLOAD PUSH32 0x8C379A000000000000000000000000000000000000000000000000000000000 DUP2 MSTORE PUSH1 0x4 ADD PUSH2 0x236 SWAP1 PUSH2 0x10E5 JUMP JUMPDEST PUSH1 0x40 MLOAD DUP1 SWAP2 SUB SWAP1 REVERT JUMPDEST PUSH1 0x2 PUSH1 0x0 CALLER PUSH20 0xFFFFFFFFFFFFFFFFFFFFFFFFFFFFFFFFFFFFFFFF AND PUSH20 0xFFFFFFFFFFFFFFFFFFFFFFFFFFFFFFFFFFFFFFFF AND DUP2 MSTORE PUSH1 0x20 ADD SWAP1 DUP2 MSTORE PUSH1 0x20 ADD PUSH1 0x0 KECCAK256 PUSH1 0x0 ADD PUSH1 0x0 SWAP1 SLOAD SWAP1 PUSH2 0x100 EXP SWAP1 DIV PUSH1 0xFF AND PUSH2 0x2CE JUMPI PUSH1 0x40 MLOAD PUSH32 0x8C379A000000000000000000000000000000000000000000000000000000000 DUP2 MSTORE PUSH1 0x4 ADD PUSH2 0x2C5 SWAP1 PUSH2 0x1177 JUMP JUMPDEST PUSH1 0x40 MLOAD DUP1 SWAP2 SUB SWAP1 REVERT JUMPDEST PUSH1 0x2 PUSH1 0x0 CALLER PUSH20 0xFFFFFFFFFFFFFFFFFFFFFFFFFFFFFFFFFFFFFFFF AND PUSH20 0xFFFFFFFFFFFFFFFFFFFFFFFFFFFFFFFFFFFFFFFF AND DUP2 MSTORE PUSH1 0x20 ADD SWAP1 DUP2 MSTORE PUSH1 0x20 ADD PUSH1 0x0 KECCAK256 PUSH1 0x0 ADD PUSH1 0x1 SWAP1 SLOAD SWAP1 PUSH2 0x100 EXP SWAP1 DIV PUSH1 0xFF AND ISZERO PUSH2 0x35E JUMPI PUSH1 0x40 MLOAD PUSH32 0x8C379A000000000000000000000000000000000000000000000000000000000 DUP2 MSTORE PUSH1 0x4 ADD PUSH2 0x355 SWAP1 PUSH2 0x1209 JUMP JUMPDEST PUSH1 0x40 MLOAD DUP1 SWAP2 SUB SWAP1 REVERT JUMPDEST PUSH1 0x0 DUP3 GT DUP1 ISZERO PUSH2 0x370 JUMPI POP PUSH1 0x3 SLOAD DUP3 GT ISZERO JUMPDEST PUSH2 0x3AF JUMPI PUSH1 0x40 MLOAD PUSH32 0x8C379A000000000000000000000000000000000000000000000000000000000 DUP2 MSTORE PUSH1 0x4 ADD PUSH2 0x3A6 SWAP1 PUSH2 0x1275 JUMP JUMPDEST PUSH1 0x40 MLOAD DUP1 SWAP2 SUB SWAP1 REVERT JUMPDEST PUSH1 0x1 PUSH1 0x2 PUSH1 0x0 CALLER PUSH20 0xFFFFFFFFFFFFFFFFFFFFFFFFFFFFFFFFFFFFFFFF AND PUSH20 0xFFFFFFFFFFFFFFFFFFFFFFFFFFFFFFFFFFFFFFFF AND DUP2 MSTORE PUSH1 0x20 ADD SWAP1 DUP2 MSTORE PUSH1 0x20 ADD PUSH1 0x0 KECCAK256 PUSH1 0x0 ADD PUSH1 0x1 PUSH2 0x100 EXP DUP2 SLOAD DUP2 PUSH1 0xFF MUL NOT AND SWAP1 DUP4 ISZERO ISZERO MUL OR SWAP1 SSTORE POP PUSH1 0x1 PUSH1 0x0 DUP4 DUP2 MSTORE PUSH1 0x20 ADD SWAP1 DUP2 MSTORE PUSH1 0x20 ADD PUSH1 0x0 KECCAK256 PUSH1 0x2 ADD PUSH1 0x0 DUP2 SLOAD DUP1 SWAP3 SWAP2 SWAP1 PUSH2 0x431 SWAP1 PUSH2 0x12C4 JUMP JUMPDEST SWAP2 SWAP1 POP SSTORE POP DUP2 CALLER PUSH20 0xFFFFFFFFFFFFFFFFFFFFFFFFFFFFFFFFFFFFFFFF AND PUSH32 0x4D99B957A2BC29A30EBD96A7BE8E68FE50A3C701DB28A91436490B7D53870CA4 PUSH1 0x40 MLOAD PUSH1 0x40 MLOAD DUP1 SWAP2 SUB SWAP1 LOG3 POP POP JUMP JUMPDEST PUSH1 0x4 PUSH1 0x0 SWAP1 SLOAD SWAP1 PUSH2 0x100 EXP SWAP1 DIV PUSH1 0xFF AND DUP2 JUMP JUMPDEST PUSH1 0x3 SLOAD DUP2 JUMP JUMPDEST PUSH1 0x1 PUSH1 0x20 MSTORE DUP1 PUSH1 0x0 MSTORE PUSH1 0x40 PUSH1 0x0 KECCAK256 PUSH1 0x0 SWAP2 POP SWAP1 POP DUP1 PUSH1 0x0 ADD SLOAD SWAP1 DUP1 PUSH1 0x1 ADD DUP1 SLOAD PUSH2 0x4C0 SWAP1 PUSH2 0x133B JUMP JUMPDEST DUP1 PUSH1 0x1F ADD PUSH1 0x20 DUP1 SWAP2 DIV MUL PUSH1 0x20 ADD PUSH1 0x40 MLOAD SWAP1 DUP2 ADD PUSH1 0x40 MSTORE DUP1 SWAP3 SWAP2 SWAP1 DUP2 DUP2 MSTORE PUSH1 0x20 ADD DUP3 DUP1 SLOAD PUSH2 0x4EC SWAP1 PUSH2 0x133B JUMP JUMPDEST DUP1 ISZERO PUSH2 0x539 JUMPI DUP1 PUSH1 0x1F LT PUSH2 0x50E JUMPI PUSH2 0x100 DUP1 DUP4 SLOAD DIV MUL DUP4 MSTORE SWAP2 PUSH1 0x20 ADD SWAP2 PUSH2 0x539 JUMP JUMPDEST DUP3 ADD SWAP2 SWAP1 PUSH1 0x0 MSTORE PUSH1 0x20 PUSH1 0x0 KECCAK256 SWAP1 JUMPDEST DUP2 SLOAD DUP2 MSTORE SWAP1 PUSH1 0x1 ADD SWAP1 PUSH1 0x20 ADD DUP1 DUP4 GT PUSH2 0x51C JUMPI DUP3 SWAP1 SUB PUSH1 0x1F AND DUP3 ADD SWAP2 JUMPDEST POP POP POP POP POP SWAP1 DUP1 PUSH1 0x2 ADD SLOAD SWAP1 POP DUP4 JUMP JUMPDEST PUSH1 0x0 DUP1 SLOAD SWAP1 PUSH2 0x100 EXP SWAP1 DIV PUSH20 0xFFFFFFFFFFFFFFFFFFFFFFFFFFFFFFFFFFFFFFFF AND PUSH20 0xFFFFFFFFFFFFFFFFFFFFFFFFFFFFFFFFFFFFFFFF AND CALLER PUSH20 0xFFFFFFFFFFFFFFFFFFFFFFFFFFFFFFFFFFFFFFFF AND EQ PUSH2 0x5D7 JUMPI PUSH1 0x40 MLOAD PUSH32 0x8C379A000000000000000000000000000000000000000000000000000000000 DUP2 MSTORE PUSH1 0x4 ADD PUSH2 0x5CE SWAP1 PUSH2 0x13DE JUMP JUMPDEST PUSH1 0x40 MLOAD DUP1 SWAP2 SUB SWAP1 REVERT JUMPDEST PUSH1 0x2 PUSH1 0x0 DUP3 PUSH20 0xFFFFFFFFFFFFFFFFFFFFFFFFFFFFFFFFFFFFFFFF AND PUSH20 0xFFFFFFFFFFFFFFFFFFFFFFFFFFFFFFFFFFFFFFFF AND DUP2 MSTORE PUSH1 0x20 ADD SWAP1 DUP2 MSTORE PUSH1 0x20 ADD PUSH1 0x0 KECCAK256 PUSH1 0x0 ADD PUSH1 0x0 SWAP1 SLOAD SWAP1 PUSH2 0x100 EXP SWAP1 DIV PUSH1 0xFF AND ISZERO PUSH2 0x667 JUMPI PUSH1 0x40 MLOAD PUSH32 0x8C379A000000000000000000000000000000000000000000000000000000000 DUP2 MSTORE PUSH1 0x4 ADD PUSH2 0x65E SWAP1 PUSH2 0x1470 JUMP JUMPDEST PUSH1 0x40 MLOAD DUP1 SWAP2 SUB SWAP1 REVERT JUMPDEST PUSH1 0x1 PUSH1 0x2 PUSH1 0x0 DUP4 PUSH20 0xFFFFFFFFFFFFFFFFFFFFFFFFFFFFFFFFFFFFFFFF AND PUSH20 0xFFFFFFFFFFFFFFFFFFFFFFFFFFFFFFFFFFFFFFFF AND DUP2 MSTORE PUSH1 0x20 ADD SWAP1 DUP2 MSTORE PUSH1 0x20 ADD PUSH1 0x0 KECCAK256 PUSH1 0x0 ADD PUSH1 0x0 PUSH2 0x100 EXP DUP2 SLOAD DUP2 PUSH1 0xFF MUL NOT AND SWAP1 DUP4 ISZERO ISZERO MUL OR SWAP1 SSTORE POP DUP1 PUSH20 0xFFFFFFFFFFFFFFFFFFFFFFFFFFFFFFFFFFFFFFFF AND PUSH32 0xB6BE2187D059CC2A55FE29E0E503B566E1E0F8C8780096E185429350ACFFD3DD PUSH1 0x40 MLOAD PUSH1 0x40 MLOAD DUP1 SWAP2 SUB SWAP1 LOG2 POP JUMP JUMPDEST PUSH1 0x0 DUP1 SLOAD SWAP1 PUSH2 0x100 EXP SWAP1 DIV PUSH20 0xFFFFFFFFFFFFFFFFFFFFFFFFFFFFFFFFFFFFFFFF AND PUSH20 0xFFFFFFFFFFFFFFFFFFFFFFFFFFFFFFFFFFFFFFFF AND CALLER PUSH20 0xFFFFFFFFFFFFFFFFFFFFFFFFFFFFFFFFFFFFFFFF AND EQ PUSH2 0x796 JUMPI PUSH1 0x40 MLOAD PUSH32 0x8C379A000000000000000000000000000000000000000000000000000000000 DUP2 MSTORE PUSH1 0x4 ADD PUSH2 0x78D SWAP1 PUSH2 0x13DE JUMP JUMPDEST PUSH1 0x40 MLOAD DUP1 SWAP2 SUB SWAP1 REVERT JUMPDEST PUSH1 0x0 DUP1 PUSH1 0x2 DUP2 GT ISZERO PUSH2 0x7AB JUMPI PUSH2 0x7AA PUSH2 0xC72 JUMP JUMPDEST JUMPDEST PUSH1 0x4 PUSH1 0x0 SWAP1 SLOAD SWAP1 PUSH2 0x100 EXP SWAP1 DIV PUSH1 0xFF AND PUSH1 0x2 DUP2 GT ISZERO PUSH2 0x7CD JUMPI PUSH2 0x7CC PUSH2 0xC72 JUMP JUMPDEST JUMPDEST EQ PUSH2 0x80D JUMPI PUSH1 0x40 MLOAD PUSH32 0x8C379A000000000000000000000000000000000000000000000000000000000 DUP2 MSTORE PUSH1 0x4 ADD PUSH2 0x804 SWAP1 PUSH2 0x10E5 JUMP JUMPDEST PUSH1 0x40 MLOAD DUP1 SWAP2 SUB SWAP1 REVERT JUMPDEST PUSH1 0x3 PUSH1 0x0 DUP2 SLOAD DUP1 SWAP3 SWAP2 SWAP1 PUSH2 0x820 SWAP1 PUSH2 0x12C4 JUMP JUMPDEST SWAP2 SWAP1 POP SSTORE POP PUSH1 0x40 MLOAD DUP1 PUSH1 0x60 ADD PUSH1 0x40 MSTORE DUP1 PUSH1 0x3 SLOAD DUP2 MSTORE PUSH1 0x20 ADD DUP4 DUP2 MSTORE PUSH1 0x20 ADD PUSH1 0x0 DUP2 MSTORE POP PUSH1 0x1 PUSH1 0x0 PUSH1 0x3 SLOAD DUP2 MSTORE PUSH1 0x20 ADD SWAP1 DUP2 MSTORE PUSH1 0x20 ADD PUSH1 0x0 KECCAK256 PUSH1 0x0 DUP3 ADD MLOAD DUP2 PUSH1 0x0 ADD SSTORE PUSH1 0x20 DUP3 ADD MLOAD DUP2 PUSH1 0x1 ADD SWAP1 DUP2 PUSH2 0x877 SWAP2 SWAP1 PUSH2 0x163C JUMP JUMPDEST POP PUSH1 0x40 DUP3 ADD MLOAD DUP2 PUSH1 0x2 ADD SSTORE SWAP1 POP POP PUSH1 0x3 SLOAD PUSH32 0xE83B2A43E7E82D975C8A0A6D2F045153C869E111136A34D1889AB7B598E396A3 DUP4 PUSH1 0x40 MLOAD PUSH2 0x8B7 SWAP2 SWAP1 PUSH2 0x170E JUMP JUMPDEST PUSH1 0x40 MLOAD DUP1 SWAP2 SUB SWAP1 LOG2 POP POP JUMP JUMPDEST PUSH1 0x0 DUP1 SLOAD SWAP1 PUSH2 0x100 EXP SWAP1 DIV PUSH20 0xFFFFFFFFFFFFFFFFFFFFFFFFFFFFFFFFFFFFFFFF AND PUSH20 0xFFFFFFFFFFFFFFFFFFFFFFFFFFFFFFFFFFFFFFFF AND CALLER PUSH20 0xFFFFFFFFFFFFFFFFFFFFFFFFFFFFFFFFFFFFFFFF AND EQ PUSH2 0x951 JUMPI PUSH1 0x40 MLOAD PUSH32 0x8C379A000000000000000000000000000000000000000000000000000000000 DUP2 MSTORE PUSH1 0x4 ADD PUSH2 0x948 SWAP1 PUSH2 0x13DE JUMP JUMPDEST PUSH1 0x40 MLOAD DUP1 SWAP2 SUB SWAP1 REVERT JUMPDEST PUSH1 0x1 DUP1 PUSH1 0x2 DUP2 GT ISZERO PUSH2 0x966 JUMPI PUSH2 0x965 PUSH2 0xC72 JUMP JUMPDEST JUMPDEST PUSH1 0x4 PUSH1 0x0 SWAP1 SLOAD SWAP1 PUSH2 0x100 EXP SWAP1 DIV PUSH1 0xFF AND PUSH1 0x2 DUP2 GT ISZERO PUSH2 0x988 JUMPI PUSH2 0x987 PUSH2 0xC72 JUMP JUMPDEST JUMPDEST EQ PUSH2 0x9C8 JUMPI PUSH1 0x40 MLOAD PUSH32 0x8C379A000000000000000000000000000000000000000000000000000000000 DUP2 MSTORE PUSH1 0x4 ADD PUSH2 0x9BF SWAP1 PUSH2 0x10E5 JUMP JUMPDEST PUSH1 0x40 MLOAD DUP1 SWAP2 SUB SWAP1 REVERT JUMPDEST PUSH1 0x2 PUSH1 0x4 PUSH1 0x0 PUSH2 0x100 EXP DUP2 SLOAD DUP2 PUSH1 0xFF MUL NOT AND SWAP1 DUP4 PUSH1 0x2 DUP2 GT ISZERO PUSH2 0x9EE JUMPI PUSH2 0x9ED PUSH2 0xC72 JUMP JUMPDEST JUMPDEST MUL OR SWAP1 SSTORE POP PUSH32 0x2A98E9A4BDA3266C85377571F662B98046C9F304E38872F4AB63B6899C02BF69 PUSH1 0x2 PUSH1 0x40 MLOAD PUSH2 0xA23 SWAP2 SWAP1 PUSH2 0xCE9 JUMP JUMPDEST PUSH1 0x40 MLOAD DUP1 SWAP2 SUB SWAP1 LOG1 POP JUMP JUMPDEST PUSH1 0x0 DUP1 SLOAD SWAP1 PUSH2 0x100 EXP SWAP1 DIV PUSH20 0xFFFFFFFFFFFFFFFFFFFFFFFFFFFFFFFFFFFFFFFF AND PUSH20 0xFFFFFFFFFFFFFFFFFFFFFFFFFFFFFFFFFFFFFFFF AND CALLER PUSH20 0xFFFFFFFFFFFFFFFFFFFFFFFFFFFFFFFFFFFFFFFF AND EQ PUSH2 0xABC JUMPI PUSH1 0x40 MLOAD PUSH32 0x8C379A000000000000000000000000000000000000000000000000000000000 DUP2 MSTORE PUSH1 0x4 ADD PUSH2 0xAB3 SWAP1 PUSH2 0x13DE JUMP JUMPDEST PUSH1 0x40 MLOAD DUP1 SWAP2 SUB SWAP1 REVERT JUMPDEST PUSH1 0x0 DUP1 PUSH1 0x2 DUP2 GT ISZERO PUSH2 0xAD1 JUMPI PUSH2 0xAD0 PUSH2 0xC72 JUMP JUMPDEST JUMPDEST PUSH1 0x4 PUSH1 0x0 SWAP1 SLOAD SWAP1 PUSH2 0x100 EXP SWAP1 DIV PUSH1 0xFF AND PUSH1 0x2 DUP2 GT ISZERO PUSH2 0xAF3 JUMPI PUSH2 0xAF2 PUSH2 0xC72 JUMP JUMPDEST JUMPDEST EQ PUSH2 0xB33 JUMPI PUSH1 0x40 MLOAD PUSH32 0x8C379A000000000000000000000000000000000000000000000000000000000 DUP2 MSTORE PUSH1 0x4 ADD PUSH2 0xB2A SWAP1 PUSH2 0x10E5 JUMP JUMPDEST PUSH1 0x40 MLOAD DUP1 SWAP2 SUB SWAP1 REVERT JUMPDEST PUSH1 0x1 PUSH1 0x4 PUSH1 0x0 PUSH2 0x100 EXP DUP2 SLOAD DUP2 PUSH1 0xFF MUL NOT AND SWAP1 DUP4 PUSH1 0x2 DUP2 GT ISZERO PUSH2 0xB59 JUMPI PUSH2 0xB58 PUSH2 0xC72 JUMP JUMPDEST JUMPDEST MUL OR SWAP1 SSTORE POP PUSH32 0x2A98E9A4BDA3266C85377571F662B98046C9F304E38872F4AB63B6899C02BF69 PUSH1 0x1 PUSH1 0x40 MLOAD PUSH2 0xB8E SWAP2 SWAP1 PUSH2 0xCE9 JUMP JUMPDEST PUSH1 0x40 MLOAD DUP1 SWAP2 SUB SWAP1 LOG1 POP JUMP JUMPDEST PUSH1 0x0 DUP1 SLOAD SWAP1 PUSH2 0x100 EXP SWAP1 DIV PUSH20 0xFFFFFFFFFFFFFFFFFFFFFFFFFFFFFFFFFFFFFFFF AND DUP2 JUMP JUMPDEST PUSH1 0x2 PUSH1 0x20 MSTORE DUP1 PUSH1 0x0 MSTORE PUSH1 0x40 PUSH1 0x0 KECCAK256 PUSH1 0x0 SWAP2 POP SWAP1 POP DUP1 PUSH1 0x0 ADD PUSH1 0x0 SWAP1 SLOAD SWAP1 PUSH2 0x100 EXP SWAP1 DIV PUSH1 0xFF AND SWAP1 DUP1 PUSH1 0x0 ADD PUSH1 0x1 SWAP1 SLOAD SWAP1 PUSH2 0x100 EXP SWAP1 DIV PUSH1 0xFF AND SWAP1 POP DUP3 JUMP JUMPDEST PUSH1 0x0 PUSH1 0x40 MLOAD SWAP1 POP SWAP1 JUMP JUMPDEST PUSH1 0x0 DUP1 REVERT JUMPDEST PUSH1 0x0 DUP1 REVERT JUMPDEST PUSH1 0x0 DUP2 SWAP1 POP SWAP2 SWAP1 POP JUMP JUMPDEST PUSH2 0xC22 DUP2 PUSH2 0xC0F JUMP JUMPDEST DUP2 EQ PUSH2 0xC2D JUMPI PUSH1 0x0 DUP1 REVERT JUMPDEST POP JUMP JUMPDEST PUSH1 0x0 DUP2 CALLDATALOAD SWAP1 POP PUSH2 0xC3F DUP2 PUSH2 0xC19 JUMP JUMPDEST SWAP3 SWAP2 POP POP JUMP JUMPDEST PUSH1 0x0 PUSH1 0x20 DUP3 DUP5 SUB SLT ISZERO PUSH2 0xC5B JUMPI PUSH2 0xC5A PUSH2 0xC05 JUMP JUMPDEST JUMPDEST PUSH1 0x0 PUSH2 0xC69 DUP5 DUP3 DUP6 ADD PUSH2 0xC30 JUMP JUMPDEST SWAP2 POP POP SWAP3 SWAP2 POP POP JUMP JUMPDEST PUSH32 0x4E487B7100000000000000000000000000000000000000000000000000000000 PUSH1 0x0 MSTORE PUSH1 0x21 PUSH1 0x4 MSTORE PUSH1 0x24 PUSH1 0x0 REVERT JUMPDEST PUSH1 0x3 DUP2 LT PUSH2 0xCB2 JUMPI PUSH2 0xCB1 PUSH2 0xC72 JUMP JUMPDEST JUMPDEST POP JUMP JUMPDEST PUSH1 0x0 DUP2 SWAP1 POP PUSH2 0xCC3 DUP3 PUSH2 0xCA1 JUMP JUMPDEST SWAP2 SWAP1 POP JUMP JUMPDEST PUSH1 0x0 PUSH2 0xCD3 DUP3 PUSH2 0xCB5 JUMP JUMPDEST SWAP1 POP SWAP2 SWAP1 POP JUMP JUMPDEST PUSH2 0xCE3 DUP2 PUSH2 0xCC8 JUMP JUMPDEST DUP3 MSTORE POP POP JUMP JUMPDEST PUSH1 0x0 PUSH1 0x20 DUP3 ADD SWAP1 POP PUSH2 0xCFE PUSH1 0x0 DUP4 ADD DUP5 PUSH2 0xCDA JUMP JUMPDEST SWAP3 SWAP2 POP POP JUMP JUMPDEST PUSH2 0xD0D DUP2 PUSH2 0xC0F JUMP JUMPDEST DUP3 MSTORE POP POP JUMP JUMPDEST PUSH1 0x0 PUSH1 0x20 DUP3 ADD SWAP1 POP PUSH2 0xD28 PUSH1 0x0 DUP4 ADD DUP5 PUSH2 0xD04 JUMP JUMPDEST SWAP3 SWAP2 POP POP JUMP JUMPDEST PUSH1 0x0 DUP2 MLOAD SWAP1 POP SWAP2 SWAP1 POP JUMP JUMPDEST PUSH1 0x0 DUP3 DUP3 MSTORE PUSH1 0x20 DUP3 ADD SWAP1 POP SWAP3 SWAP2 POP POP JUMP JUMPDEST PUSH1 0x0 JUMPDEST DUP4 DUP2 LT ISZERO PUSH2 0xD68 JUMPI DUP1 DUP3 ADD MLOAD DUP2 DUP5 ADD MSTORE PUSH1 0x20 DUP2 ADD SWAP1 POP PUSH2 0xD4D JUMP JUMPDEST PUSH1 0x0 DUP5 DUP5 ADD MSTORE POP POP POP POP JUMP JUMPDEST PUSH1 0x0 PUSH1 0x1F NOT PUSH1 0x1F DUP4 ADD AND SWAP1 POP SWAP2 SWAP1 POP JUMP JUMPDEST PUSH1 0x0 PUSH2 0xD90 DUP3 PUSH2 0xD2E JUMP JUMPDEST PUSH2 0xD9A DUP2 DUP6 PUSH2 0xD39 JUMP JUMPDEST SWAP4 POP PUSH2 0xDAA DUP2 DUP6 PUSH1 0x20 DUP7 ADD PUSH2 0xD4A JUMP JUMPDEST PUSH2 0xDB3 DUP2 PUSH2 0xD74 JUMP JUMPDEST DUP5 ADD SWAP2 POP POP SWAP3 SWAP2 POP POP JUMP JUMPDEST PUSH1 0x0 PUSH1 0x60 DUP3 ADD SWAP1 POP PUSH2 0xDD3 PUSH1 0x0 DUP4 ADD DUP7 PUSH2 0xD04 JUMP JUMPDEST DUP2 DUP2 SUB PUSH1 0x20 DUP4 ADD MSTORE PUSH2 0xDE5 DUP2 DUP6 PUSH2 0xD85 JUMP JUMPDEST SWAP1 POP PUSH2 0xDF4 PUSH1 0x40 DUP4 ADD DUP5 PUSH2 0xD04 JUMP JUMPDEST SWAP5 SWAP4 POP POP POP POP JUMP JUMPDEST PUSH1 0x0 PUSH20 0xFFFFFFFFFFFFFFFFFFFFFFFFFFFFFFFFFFFFFFFF DUP3 AND SWAP1 POP SWAP2 SWAP1 POP JUMP JUMPDEST PUSH1 0x0 PUSH2 0xE27 DUP3 PUSH2 0xDFC JUMP JUMPDEST SWAP1 POP SWAP2 SWAP1 POP JUMP JUMPDEST PUSH2 0xE37 DUP2 PUSH2 0xE1C JUMP JUMPDEST DUP2 EQ PUSH2 0xE42 JUMPI PUSH1 0x0 DUP1 REVERT JUMPDEST POP JUMP JUMPDEST PUSH1 0x0 DUP2 CALLDATALOAD SWAP1 POP PUSH2 0xE54 DUP2 PUSH2 0xE2E JUMP JUMPDEST SWAP3 SWAP2 POP POP JUMP JUMPDEST PUSH1 0x0 PUSH1 0x20 DUP3 DUP5 SUB SLT ISZERO PUSH2 0xE70 JUMPI PUSH2 0xE6F PUSH2 0xC05 JUMP JUMPDEST JUMPDEST PUSH1 0x0 PUSH2 0xE7E DUP5 DUP3 DUP6 ADD PUSH2 0xE45 JUMP JUMPDEST SWAP2 POP POP SWAP3 SWAP2 POP POP JUMP JUMPDEST PUSH1 0x0 DUP1 REVERT JUMPDEST PUSH1 0x0 DUP1 REVERT JUMPDEST PUSH32 0x4E487B7100000000000000000000000000000000000000000000000000000000 PUSH1 0x0 MSTORE PUSH1 0x41 PUSH1 0x4 MSTORE PUSH1 0x24 PUSH1 0x0 REVERT JUMPDEST PUSH2 0xEC9 DUP3 PUSH2 0xD74 JUMP JUMPDEST DUP2 ADD DUP2 DUP2 LT PUSH8 0xFFFFFFFFFFFFFFFF DUP3 GT OR ISZERO PUSH2 0xEE8 JUMPI PUSH2 0xEE7 PUSH2 0xE91 JUMP JUMPDEST JUMPDEST DUP1 PUSH1 0x40 MSTORE POP POP POP JUMP JUMPDEST PUSH1 0x0 PUSH2 0xEFB PUSH2 0xBFB JUMP JUMPDEST SWAP1 POP PUSH2 0xF07 DUP3 DUP3 PUSH2 0xEC0 JUMP JUMPDEST SWAP2 SWAP1 POP JUMP JUMPDEST PUSH1 0x0 PUSH8 0xFFFFFFFFFFFFFFFF DUP3 GT ISZERO PUSH2 0xF27 JUMPI PUSH2 0xF26 PUSH2 0xE91 JUMP JUMPDEST JUMPDEST PUSH2 0xF30 DUP3 PUSH2 0xD74 JUMP JUMPDEST SWAP1 POP PUSH1 0x20 DUP2 ADD SWAP1 POP SWAP2 SWAP1 POP JUMP JUMPDEST DUP3 DUP2 DUP4 CALLDATACOPY PUSH1 0x0 DUP4 DUP4 ADD MSTORE POP POP POP JUMP JUMPDEST PUSH1 0x0 PUSH2 0xF5F PUSH2 0xF5A DUP5 PUSH2 0xF0C JUMP JUMPDEST PUSH2 0xEF1 JUMP JUMPDEST SWAP1 POP DUP3 DUP2 MSTORE PUSH1 0x20 DUP2 ADD DUP5 DUP5 DUP5 ADD GT ISZERO PUSH2 0xF7B JUMPI PUSH2 0xF7A PUSH2 0xE8C JUMP JUMPDEST JUMPDEST PUSH2 0xF86 DUP5 DUP3 DUP6 PUSH2 0xF3D JUMP JUMPDEST POP SWAP4 SWAP3 POP POP POP JUMP JUMPDEST PUSH1 0x0 DUP3 PUSH1 0x1F DUP4 ADD SLT PUSH2 0xFA3 JUMPI PUSH2 0xFA2 PUSH2 0xE87 JUMP JUMPDEST JUMPDEST DUP2 CALLDATALOAD PUSH2 0xFB3 DUP5 DUP3 PUSH1 0x20 DUP7 ADD PUSH2 0xF4C JUMP JUMPDEST SWAP2 POP POP SWAP3 SWAP2 POP POP JUMP JUMPDEST PUSH1 0x0 PUSH1 0x20 DUP3 DUP5 SUB SLT ISZERO PUSH2 0xFD2 JUMPI PUSH2 0xFD1 PUSH2 0xC05 JUMP JUMPDEST JUMPDEST PUSH1 0x0 DUP3 ADD CALLDATALOAD PUSH8 0xFFFFFFFFFFFFFFFF DUP2 GT ISZERO PUSH2 0xFF0 JUMPI PUSH2 0xFEF PUSH2 0xC0A JUMP JUMPDEST JUMPDEST PUSH2 0xFFC DUP5 DUP3 DUP6 ADD PUSH2 0xF8E JUMP JUMPDEST SWAP2 POP POP SWAP3 SWAP2 POP POP JUMP JUMPDEST PUSH2 0x100E DUP2 PUSH2 0xE1C JUMP JUMPDEST DUP3 MSTORE POP POP JUMP JUMPDEST PUSH1 0x0 PUSH1 0x20 DUP3 ADD SWAP1 POP PUSH2 0x1029 PUSH1 0x0 DUP4 ADD DUP5 PUSH2 0x1005 JUMP JUMPDEST SWAP3 SWAP2 POP POP JUMP JUMPDEST PUSH1 0x0 DUP2 ISZERO ISZERO SWAP1 POP SWAP2 SWAP1 POP JUMP JUMPDEST PUSH2 0x1044 DUP2 PUSH2 0x102F JUMP JUMPDEST DUP3 MSTORE POP POP JUMP JUMPDEST PUSH1 0x0 PUSH1 0x40 DUP3 ADD SWAP1 POP PUSH2 0x105F PUSH1 0x0 DUP4 ADD DUP6 PUSH2 0x103B JUMP JUMPDEST PUSH2 0x106C PUSH1 0x20 DUP4 ADD DUP5 PUSH2 0x103B JUMP JUMPDEST SWAP4 SWAP3 POP POP POP JUMP JUMPDEST PUSH32 0x4572726F723A20456C656374696F6E206973206E6F7420696E20746865207265 PUSH1 0x0 DUP3 ADD MSTORE PUSH32 0x7175697265642073746174652E00000000000000000000000000000000000000 PUSH1 0x20 DUP3 ADD MSTORE POP JUMP JUMPDEST PUSH1 0x0 PUSH2 0x10CF PUSH1 0x2D DUP4 PUSH2 0xD39 JUMP JUMPDEST SWAP2 POP PUSH2 0x10DA DUP3 PUSH2 0x1073 JUMP JUMPDEST PUSH1 0x40 DUP3 ADD SWAP1 POP SWAP2 SWAP1 POP JUMP JUMPDEST PUSH1 0x0 PUSH1 0x20 DUP3 ADD SWAP1 POP DUP2 DUP2 SUB PUSH1 0x0 DUP4 ADD MSTORE PUSH2 0x10FE DUP2 PUSH2 0x10C2 JUMP JUMPDEST SWAP1 POP SWAP2 SWAP1 POP JUMP JUMPDEST PUSH32 0x4572726F723A20596F7520617265206E6F74207265676973746572656420746F PUSH1 0x0 DUP3 ADD MSTORE PUSH32 0x20766F74652E0000000000000000000000000000000000000000000000000000 PUSH1 0x20 DUP3 ADD MSTORE POP JUMP JUMPDEST PUSH1 0x0 PUSH2 0x1161 PUSH1 0x26 DUP4 PUSH2 0xD39 JUMP JUMPDEST SWAP2 POP PUSH2 0x116C DUP3 PUSH2 0x1105 JUMP JUMPDEST PUSH1 0x40 DUP3 ADD SWAP1 POP SWAP2 SWAP1 POP JUMP JUMPDEST PUSH1 0x0 PUSH1 0x20 DUP3 ADD SWAP1 POP DUP2 DUP2 SUB PUSH1 0x0 DUP4 ADD MSTORE PUSH2 0x1190 DUP2 PUSH2 0x1154 JUMP JUMPDEST SWAP1 POP SWAP2 SWAP1 POP JUMP JUMPDEST PUSH32 0x4572726F723A20596F75206861766520616C7265616479206361737420796F75 PUSH1 0x0 DUP3 ADD MSTORE PUSH32 0x7220766F74652E00000000000000000000000000000000000000000000000000 PUSH1 0x20 DUP3 ADD MSTORE POP JUMP JUMPDEST PUSH1 0x0 PUSH2 0x11F3 PUSH1 0x27 DUP4 PUSH2 0xD39 JUMP JUMPDEST SWAP2 POP PUSH2 0x11FE DUP3 PUSH2 0x1197 JUMP JUMPDEST PUSH1 0x40 DUP3 ADD SWAP1 POP SWAP2 SWAP1 POP JUMP JUMPDEST PUSH1 0x0 PUSH1 0x20 DUP3 ADD SWAP1 POP DUP2 DUP2 SUB PUSH1 0x0 DUP4 ADD MSTORE PUSH2 0x1222 DUP2 PUSH2 0x11E6 JUMP JUMPDEST SWAP1 POP SWAP2 SWAP1 POP JUMP JUMPDEST PUSH32 0x4572726F723A20496E76616C69642063616E6469646174652049442E00000000 PUSH1 0x0 DUP3 ADD MSTORE POP JUMP JUMPDEST PUSH1 0x0 PUSH2 0x125F PUSH1 0x1C DUP4 PUSH2 0xD39 JUMP JUMPDEST SWAP2 POP PUSH2 0x126A DUP3 PUSH2 0x1229 JUMP JUMPDEST PUSH1 0x20 DUP3 ADD SWAP1 POP SWAP2 SWAP1 POP JUMP JUMPDEST PUSH1 0x0 PUSH1 0x20 DUP3 ADD SWAP1 POP DUP2 DUP2 SUB PUSH1 0x0 DUP4 ADD MSTORE PUSH2 0x128E DUP2 PUSH2 0x1252 JUMP JUMPDEST SWAP1 POP SWAP2 SWAP1 POP JUMP JUMPDEST PUSH32 0x4E487B7100000000000000000000000000000000000000000000000000000000 PUSH1 0x0 MSTORE PUSH1 0x11 PUSH1 0x4 MSTORE PUSH1 0x24 PUSH1 0x0 REVERT JUMPDEST PUSH1 0x0 PUSH2 0x12CF DUP3 PUSH2 0xC0F JUMP JUMPDEST SWAP2 POP PUSH32 0xFFFFFFFFFFFFFFFFFFFFFFFFFFFFFFFFFFFFFFFFFFFFFFFFFFFFFFFFFFFFFFFF DUP3 SUB PUSH2 0x1301 JUMPI PUSH2 0x1300 PUSH2 0x1295 JUMP JUMPDEST JUMPDEST PUSH1 0x1 DUP3 ADD SWAP1 POP SWAP2 SWAP1 POP JUMP JUMPDEST PUSH32 0x4E487B7100000000000000000000000000000000000000000000000000000000 PUSH1 0x0 MSTORE PUSH1 0x22 PUSH1 0x4 MSTORE PUSH1 0x24 PUSH1 0x0 REVERT JUMPDEST PUSH1 0x0 PUSH1 0x2 DUP3 DIV SWAP1 POP PUSH1 0x1 DUP3 AND DUP1 PUSH2 0x1353 JUMPI PUSH1 0x7F DUP3 AND SWAP2 POP JUMPDEST PUSH1 0x20 DUP3 LT DUP2 SUB PUSH2 0x1366 JUMPI PUSH2 0x1365 PUSH2 0x130C JUMP JUMPDEST JUMPDEST POP SWAP2 SWAP1 POP JUMP JUMPDEST PUSH32 0x4572726F723A204F6E6C7920746865206F776E65722063616E2063616C6C2074 PUSH1 0x0 DUP3 ADD MSTORE PUSH32 0x6869732066756E6374696F6E2E00000000000000000000000000000000000000 PUSH1 0x20 DUP3 ADD MSTORE POP JUMP JUMPDEST PUSH1 0x0 PUSH2 0x13C8 PUSH1 0x2D DUP4 PUSH2 0xD39 JUMP JUMPDEST SWAP2 POP PUSH2 0x13D3 DUP3 PUSH2 0x136C JUMP JUMPDEST PUSH1 0x40 DUP3 ADD SWAP1 POP SWAP2 SWAP1 POP JUMP JUMPDEST PUSH1 0x0 PUSH1 0x20 DUP3 ADD SWAP1 POP DUP2 DUP2 SUB PUSH1 0x0 DUP4 ADD MSTORE PUSH2 0x13F7 DUP2 PUSH2 0x13BB JUMP JUMPDEST SWAP1 POP SWAP2 SWAP1 POP JUMP JUMPDEST PUSH32 0x4572726F723A20566F74657220697320616C7265616479207265676973746572 PUSH1 0x0 DUP3 ADD MSTORE PUSH32 0x65642E0000000000000000000000000000000000000000000000000000000000 PUSH1 0x20 DUP3 ADD MSTORE POP JUMP JUMPDEST PUSH1 0x0 PUSH2 0x145A PUSH1 0x23 DUP4 PUSH2 0xD39 JUMP JUMPDEST SWAP2 POP PUSH2 0x1465 DUP3 PUSH2 0x13FE JUMP JUMPDEST PUSH1 0x40 DUP3 ADD SWAP1 POP SWAP2 SWAP1 POP JUMP JUMPDEST PUSH1 0x0 PUSH1 0x20 DUP3 ADD SWAP1 POP DUP2 DUP2 SUB PUSH1 0x0 DUP4 ADD MSTORE PUSH2 0x1489 DUP2 PUSH2 0x144D JUMP JUMPDEST SWAP1 POP SWAP2 SWAP1 POP JUMP JUMPDEST PUSH1 0x0 DUP2 SWAP1 POP DUP2 PUSH1 0x0 MSTORE PUSH1 0x20 PUSH1 0x0 KECCAK256 SWAP1 POP SWAP2 SWAP1 POP JUMP JUMPDEST PUSH1 0x0 PUSH1 0x20 PUSH1 0x1F DUP4 ADD DIV SWAP1 POP SWAP2 SWAP1 POP JUMP JUMPDEST PUSH1 0x0 DUP3 DUP3 SHL SWAP1 POP SWAP3 SWAP2 POP POP JUMP JUMPDEST PUSH1 0x0 PUSH1 0x8 DUP4 MUL PUSH2 0x14F2 PUSH32 0xFFFFFFFFFFFFFFFFFFFFFFFFFFFFFFFFFFFFFFFFFFFFFFFFFFFFFFFFFFFFFFFF DUP3 PUSH2 0x14B5 JUMP JUMPDEST PUSH2 0x14FC DUP7 DUP4 PUSH2 0x14B5 JUMP JUMPDEST SWAP6 POP DUP1 NOT DUP5 AND SWAP4 POP DUP1 DUP7 AND DUP5 OR SWAP3 POP POP POP SWAP4 SWAP3 POP POP POP JUMP JUMPDEST PUSH1 0x0 DUP2 SWAP1 POP SWAP2 SWAP1 POP JUMP JUMPDEST PUSH1 0x0 PUSH2 0x1539 PUSH2 0x1534 PUSH2 0x152F DUP5 PUSH2 0xC0F JUMP JUMPDEST PUSH2 0x1514 JUMP JUMPDEST PUSH2 0xC0F JUMP JUMPDEST SWAP1 POP SWAP2 SWAP1 POP JUMP JUMPDEST PUSH1 0x0 DUP2 SWAP1 POP SWAP2 SWAP1 POP JUMP JUMPDEST PUSH2 0x1553 DUP4 PUSH2 0x151E JUMP JUMPDEST PUSH2 0x1567 PUSH2 0x155F DUP3 PUSH2 0x1540 JUMP JUMPDEST DUP5 DUP5 SLOAD PUSH2 0x14C2 JUMP JUMPDEST DUP3 SSTORE POP POP POP POP JUMP JUMPDEST PUSH1 0x0 SWAP1 JUMP JUMPDEST PUSH2 0x157C PUSH2 0x156F JUMP JUMPDEST PUSH2 0x1587 DUP2 DUP5 DUP5 PUSH2 0x154A JUMP JUMPDEST POP POP POP JUMP JUMPDEST JUMPDEST DUP2 DUP2 LT ISZERO PUSH2 0x15AB JUMPI PUSH2 0x15A0 PUSH1 0x0 DUP3 PUSH2 0x1574 JUMP JUMPDEST PUSH1 0x1 DUP2 ADD SWAP1 POP PUSH2 0x158D JUMP JUMPDEST POP POP JUMP JUMPDEST PUSH1 0x1F DUP3 GT ISZERO PUSH2 0x15F0 JUMPI PUSH2 0x15C1 DUP2 PUSH2 0x1490 JUMP JUMPDEST PUSH2 0x15CA DUP5 PUSH2 0x14A5 JUMP JUMPDEST DUP2 ADD PUSH1 0x20 DUP6 LT ISZERO PUSH2 0x15D9 JUMPI DUP2 SWAP1 POP JUMPDEST PUSH2 0x15ED PUSH2 0x15E5 DUP6 PUSH2 0x14A5 JUMP JUMPDEST DUP4 ADD DUP3 PUSH2 0x158C JUMP JUMPDEST POP POP JUMPDEST POP POP POP JUMP JUMPDEST PUSH1 0x0 DUP3 DUP3 SHR SWAP1 POP SWAP3 SWAP2 POP POP JUMP JUMPDEST PUSH1 0x0 PUSH2 0x1613 PUSH1 0x0 NOT DUP5 PUSH1 0x8 MUL PUSH2 0x15F5 JUMP JUMPDEST NOT DUP1 DUP4 AND SWAP2 POP POP SWAP3 SWAP2 POP POP JUMP JUMPDEST PUSH1 0x0 PUSH2 0x162C DUP4 DUP4 PUSH2 0x1602 JUMP JUMPDEST SWAP2 POP DUP3 PUSH1 0x2 MUL DUP3 OR SWAP1 POP SWAP3 SWAP2 POP POP JUMP JUMPDEST PUSH2 0x1645 DUP3 PUSH2 0xD2E JUMP JUMPDEST PUSH8 0xFFFFFFFFFFFFFFFF DUP2 GT ISZERO PUSH2 0x165E JUMPI PUSH2 0x165D PUSH2 0xE91 JUMP JUMPDEST JUMPDEST PUSH2 0x1668 DUP3 SLOAD PUSH2 0x133B JUMP JUMPDEST PUSH2 0x1673 DUP3 DUP3 DUP6 PUSH2 0x15AF JUMP JUMPDEST PUSH1 0x0 PUSH1 0x20 SWAP1 POP PUSH1 0x1F DUP4 GT PUSH1 0x1 DUP2 EQ PUSH2 0x16A6 JUMPI PUSH1 0x0 DUP5 ISZERO PUSH2 0x1694 JUMPI DUP3 DUP8 ADD MLOAD SWAP1 POP JUMPDEST PUSH2 0x169E DUP6 DUP3 PUSH2 0x1620 JUMP JUMPDEST DUP7 SSTORE POP PUSH2 0x1706 JUMP JUMPDEST PUSH1 0x1F NOT DUP5 AND PUSH2 0x16B4 DUP7 PUSH2 0x1490 JUMP JUMPDEST PUSH1 0x0 JUMPDEST DUP3 DUP2 LT ISZERO PUSH2 0x16DC JUMPI DUP5 DUP10 ADD MLOAD DUP3 SSTORE PUSH1 0x1 DUP3 ADD SWAP2 POP PUSH1 0x20 DUP6 ADD SWAP5 POP PUSH1 0x20 DUP2 ADD SWAP1 POP PUSH2 0x16B7 JUMP JUMPDEST DUP7 DUP4 LT ISZERO PUSH2 0x16F9 JUMPI DUP5 DUP10 ADD MLOAD PUSH2 0x16F5 PUSH1 0x1F DUP10 AND DUP3 PUSH2 0x1602 JUMP JUMPDEST DUP4 SSTORE POP JUMPDEST PUSH1 0x1 PUSH1 0x2 DUP9 MUL ADD DUP9 SSTORE POP POP POP JUMPDEST POP POP POP POP POP POP JUMP JUMPDEST PUSH1 0x0 PUSH1 0x20 DUP3 ADD SWAP1 POP DUP2 DUP2 SUB PUSH1 0x0 DUP4 ADD MSTORE PUSH2 0x1728 DUP2 DUP5 PUSH2 0xD85 JUMP JUMPDEST SWAP1 POP SWAP3 SWAP2 POP POP JUMP INVALID LOG2 PUSH5 0x6970667358 0x22 SLT KECCAK256 0x21 KECCAK256 CALLER PUSH32 0xFA64D5835BA53BBC7D2FA009ADA1DFDEDBD71CF4A98F4C4C7D6A7B7E64736F6C PUSH4 0x43000813 STOP CALLER "},"methodIdentifiers":{"addCandidate(string)":"462e91ec","candidates(uint256)":"3477ee2e","candidatesCount()":"2d35a8a2","electionState()":"2280043d","endElection()":"59f78468","owner()":"8da5cb5b","registerVoter(address)":"38db6dd3","startElection()":"62d73eb8","vote(uint256)":"0121b93f","voters(address)":"a3ec138d"}}}}}